:020000040000fa
:080000000002040000000000f2
:020000040000fa
:04000800e803000009
:020000040000fa
:04000c00e803000005
:020000040000fa
:04001000e803000001
:020000040000fa
:04001400e8030000fd
:020000040000fa
:04001800e8030000f9
:020000040000fa
:04001c00e8030000f5
:020000040000fa
:04002000e8030000f1
:020000040000fa
:04002400e8030000ed
:020000040000fa
:04002800e8030000e9
:020000040000fa
:04002c00e8030000e5
:020000040000fa
:04003000e8030000e1
:020000040000fa
:0400340002030000c3
:020000040000fa
:04003800e8030000d9
:020000040000fa
:04003c00e8030000d5
:020000040000fa
:04004000e8030000d1
:020000040000fa
:04004400e8030000cd
:020000040000fa
:04004800fa020000b8
:020000040000fa
:04004c00e8030000c5
:020000040000fa
:04005000e8030000c1
:020000040000fa
:04005400a403000001
:020000040000fa
:040058007a03000027
:020000040000fa
:04005c004c03000051
:020000040000fa
:04006000e8030000b1
:020000040000fa
:04006400e8030000ad
:020000040000fa
:04006800e8030000a9
:020000040000fa
:04006c00e8030000a5
:020000040000fa
:04007000e8030000a1
:020000040000fa
:04007400e80300009d
:020000040000fa
:04007800e803000099
:020000040000fa
:04007c00e803000095
:020000040000fa
:04008000e803000091
:020000040000fa
:04008400e80300008d
:020000040000fa
:04008800e803000089
:020000040000fa
:04008c00e803000085
:020000040000fa
:04009000e803000081
:020000040000fa
:040094002203000043
:020000040000fa
:04009800e803000079
:020000040000fa
:04009c00e803000075
:020000040000fa
:0400a000e803000071
:020000040000fa
:0400a400e80300006d
:020000040000fa
:0400a800e803000069
:020000040000fa
:0400ac00e803000065
:020000040000fa
:0400b000e803000061
:020000040000fa
:0400b400e80300005d
:020000040000fa
:0400b800e803000059
:020000040000fa
:0400bc00e803000055
:020000040000fa
:0400c000e803000051
:020000040000fa
:0400c400e80300004d
:020000040000fa
:0400c800e803000049
:020000040000fa
:0400cc00e803000045
:020000040000fa
:0400d000e803000041
:020000040000fa
:0400d400e80300003d
:020000040000fa
:0400d800e803000039
:020000040000fa
:0400dc00e803000035
:020000040000fa
:0400e000e803000031
:020000040000fa
:0400e400e80300002d
:020000040000fa
:0400e800e803000029
:020000040000fa
:0400ec00e803000025
:020000040000fa
:0400f000e803000021
:020000040000fa
:0400f400e80300001d
:020000040000fa
:0400f800e803000019
:020000040000fa
:0400fc00e803000015
:020000040000fa
:04010000e803000010
:020000040000fa
:04010400e80300000c
:020000040000fa
:04010800e803000008
:020000040000fa
:04010c00e803000004
:020000040000fa
:04011000e803000000
:020000040000fa
:04011400e8030000fc
:020000040000fa
:04011800e8030000f8
:020000040000fa
:04011c00e8030000f4
:020000040000fa
:04012000e8030000f0
:020000040000fa
:04012400e8030000ec
:020000040000fa
:04012800e8030000e8
:020000040000fa
:04012c00e8030000e4
:020000040000fa
:04013000e8030000e0
:020000040000fa
:04013400e8030000dc
:020000040000fa
:04013800e8030000d8
:020000040000fa
:04013c00e8030000d4
:020000040000fa
:04014000e8030000d0
:020000040000fa
:04014400e8030000cc
:020000040000fa
:04014800e8030000c8
:020000040000fa
:04014c00e8030000c4
:020000040000fa
:04015000e8030000c0
:020000040000fa
:04015400e8030000bc
:020000040000fa
:04015800e8030000b8
:020000040000fa
:04015c00e8030000b4
:020000040000fa
:04016000e8030000b0
:020000040000fa
:04016400e8030000ac
:020000040000fa
:04016800e8030000a8
:020000040000fa
:04016c00e8030000a4
:020000040000fa
:04017000e8030000a0
:020000040000fa
:04017400e80300009c
:020000040000fa
:04017800e803000098
:020000040000fa
:04017c00e803000094
:020000040000fa
:04018000e803000090
:020000040000fa
:04018400e80300008c
:020000040000fa
:04018800e803000088
:020000040000fa
:04018c00e803000084
:020000040000fa
:04019000e803000080
:020000040000fa
:04019400e80300007c
:020000040000fa
:04019800e803000078
:020000040000fa
:04019c00e803000074
:020000040000fa
:0401a000e803000070
:020000040000fa
:0401a400e80300006c
:020000040000fa
:0401a800e803000068
:020000040000fa
:0401ac00e803000064
:020000040000fa
:0401b000e803000060
:020000040000fa
:0401b400e80300005c
:020000040000fa
:0401b800e803000058
:020000040000fa
:0401bc00e803000054
:020000040000fa
:0401c000e803000050
:020000040000fa
:0401c400e80300004c
:020000040000fa
:0401c800e803000048
:020000040000fa
:0401cc00e803000044
:020000040000fa
:0401d000e803000040
:020000040000fa
:0401d400e80300003c
:020000040000fa
:0401d800e803000038
:020000040000fa
:0401dc00e803000034
:020000040000fa
:0401e000e803000030
:020000040000fa
:0401e400e80300002c
:020000040000fa
:0401e800e803000028
:020000040000fa
:0401ec00e803000024
:020000040000fa
:0401f000e803000020
:020000040000fa
:0401f400e80300001c
:020000040000fa
:0401f800e803000018
:020000040000fa
:0401fc00e803000014
:020000040000fa
:04020000e80300000f
:020000040000fa
:04020400e80300000b
:020000040000fa
:04020800e803000007
:020000040000fa
:04020c00e803000003
:020000040000fa
:04021000e8030000ff
:020000040000fa
:04021400e8030000fb
:020000040000fa
:04021800e8030000f7
:020000040000fa
:04021c00e8030000f3
:020000040000fa
:04022000e8030000ef
:020000040000fa
:04022400e8030000eb
:020000040000fa
:04022800e8030000e7
:020000040000fa
:04022c00e8030000e3
:020000040000fa
:04023000e8030000df
:020000040000fa
:04023400e8030000db
:020000040000fa
:04023800e8030000d7
:020000040000fa
:04023c00e8030000d3
:020000040000fa
:04024000e8030000cf
:020000040000fa
:04024400e8030000cb
:020000040000fa
:04024800e8030000c7
:020000040000fa
:04024c00e8030000c3
:020000040000fa
:04025000e8030000bf
:020000040000fa
:04025400e8030000bb
:020000040000fa
:04025800e8030000b7
:020000040000fa
:04025c00e8030000b3
:020000040000fa
:04026000e8030000af
:020000040000fa
:04026400e8030000ab
:020000040000fa
:04026800e8030000a7
:020000040000fa
:04026c00e8030000a3
:020000040000fa
:04027000e80300009f
:020000040000fa
:04027400e80300009b
:020000040000fa
:04027800e803000097
:020000040000fa
:04027c00e803000093
:020000040000fa
:04028000e80300008f
:020000040000fa
:10040000af1421000eff2c000e0188000000000038
:10041000000020000000e000020032000001200087
:100420002002880014000700eb0007000000e00035
:1004300003003a00c0a7210001002000020037009d
:100440000000200001002000810f70000100320038
:100450000f000700000020000000e0000200320052
:1004600000000200000000007a0702000000000007
:100470000040da000000fe00200020000000e00044
:1004800002003200100020009001880000000600e9
:10049000a1028800800478000000eb001f003700f4
:1004a000e284440054a0b4009905ba00e2844400f8
:1004b00054a0b4009906ba00e284440054a0b400e9
:1004c0000006eb00476fde00fd07b200ae018800ba
:1004d000636ce10003003a000ad801000000eb0061
:1004e0000e003700606ce10008003a00004deb00a0
:1004f0000a05e800020039003420ec000af0a000f0
:100500008b05e900f9ff3e00040037006168e10057
:10051000010032000086eb000b00070019c7ba008b
:100520000e04e0001905ba0003003a000a00e000da
:10053000dbff3a0000000600fe07b200ae028800b2
:100540008a047800f5ff37000cd0a300e20f4d00bd
:100550001c00390089027800354dba000a05e80010
:10056000020039003420ec000af0a0008b05e900fd
:100570000f003200254dba000a05e80002003900dc
:100580003420ec000af0a0008b05e90008003200de
:100590000c00e0000600320015cdba000a05e800a4
:1005a000020039003420ec000af0a0008b05e900bd
:1005b0008984e80054a0b4000b00e000e2ff3a0098
:1005c000000006009902ba00055d78008b05e9007d
:1005d000f7ff3200c82ade00055d78008b05e900d0
:1005e000f3ff32000c00e000f1ff320019ddba0029
:1005f000eeff37000000fa000108a9000080fa00b1
:10060000004006003600f800809fbe00829fbe00ba
:10061000849fbe00869fbe000000fa000068a9000b
:1006200020090700000b07000080fa004f03be00fe
:100630004f02be004f01be004f00be003600f90061
:10064000004006003600f800809fbe00829fbe007a
:10065000849fbe00869fbe000000fa000368a900c8
:10066000d0808000e180800061004000e080480090
:10067000d0808800e1808800fa0207000080fa003c
:100680004f03be004f02be004f01be004f00be0030
:100690003600f90000400600809fbe000000fa000e
:1006a00001a8a9000118800020002100010878009d
:1006b00011188000200021001100980021188000ee
:1006c0002000210021009800311880002000210026
:1006d000310098004118800020002100410098005e
:1006e00010c0b3000af0b7000080fa004f00be004f
:1006f000004006003600f800809fbe00829fbe00ca
:10070000849fbe00869fbe000000fa000188a900f9
:10071000b1808000a0808000808f500002003200f5
:10072000620a0700010037001870ef000080fa002d
:100730004f03be004f02be004f01be004f00be007f
:100740003600f900004006003600f800809fbe0029
:10075000829fbe00849fbe00869fbe000000fa00fc
:100760000168a90010118000640060000000e00032
:10077000010032002242a9001011800062006000d6
:100780000000e000060032002222a9000500370028
:100790003011800000407800b30a070001003700e4
:1007a0000000000010118000610060000000e00007
:1007b000f7ff3a000080fa004f03be004f02be0070
:1007c0004f01be004f00be003600f9000040060099
:1007d0000040da000000fe000000050003f0a20067
:1007e000889fbe008a9fbe008c1f78001b010700f7
:1007f000220133006450e1004f0032006420e10028
:100800005200320003826c0007003b000905d00053
:100810000306d000820f54000c065d000200390070
:1008200002003200890178000306780085825500b5
:1008300004003d000003fd008103fd008502ea0085
:100840008b854200840f720002003b0060001000a4
:10085000e08018006011b8000005eb007a28e10084
:100860000a00390006007800c75ddd00f707b20016
:10087000878075002d003700828171000a017800a1
:10088000610560008180d1000080d3008502e9000d
:10089000f9ff3b00060440008784480002003b004b
:1008a00060041400e0841c000988a30007003200e3
:1008b0008a81710082817100610164008904d10024
:1008c0000884d3008b05e800170037000978a300df
:1008d00013003a000b00e000130034008b05e90020
:1008e0000804440089844c000a4474000978a30079
:1008f0000d003a000b00e000070034008b05e90012
:100900000804440089844c0001003a000b002000d8
:100910000978a300f7ff32000001eb000200370066
:10092000828171000a017800910007000cf0a70095
:1009300001f0a000da0037006420e10002003a0074
:10094000838f6c00da0033000801be000200be0095
:10095000d3003700889fbe008a9fbe008c1f78009e
:10096000be000700c500330003866c006450e10040
:100970002e0032006420e100330032006150e100bb
:100980002f0032006120e1003100320085855500e2
:10099000eb07b00009002000080420000500370024
:1009a0000804440089844c000a0031000603430017
:1009b00087834b000001530081815b00f8ff330007
:1009c0000203be000800a0000804440089844c0013
:1009d000f6ff3900c639dd008301730001003200e3
:1009e000130020008904d1000884d3000998a300d3
:1009f000050032000800a7000300a0008904d10010
:100a00000884d3008b05e8008904d1000884d30052
:100a10000001eb000281d2005500070001f0a100a7
:100a20000cf0a70001f0a0009d0037006420e10059
:100a30009f0032000801be000200be00f7ff370031
:100a40006120e1009a0032006000b800f3ff370037
:100a50000000200001f82700f0ff370014002000fc
:100a6000ca003700f4ff2f00c80037000001be00a5
:100a7000650007000470a70003f0a1006509b1003c
:100a8000160032000d0035006828e1000600350030
:100a9000f0ff2f00f1ff27000300e00013003b00f0
:100aa000010028000000050000004000818048008f
:100ab0008502e900fcff3a0008003700f88f420089
:100ac00002003c008000eb00000005008100d10026
:100ad0000080d3008502e800fcff3a000300e0003c
:100ae00002003b0060001000e080180000000600db
:100af0000001be00440007000470a70003f0a1003d
:100b000003f8a30013003a006509b1001000320099
:100b1000090035006928e1000200350001002800c5
:100b20000000050000004000818048008502e900c7
:100b3000fcff3a0000000600f88f42000500350077
:100b40008100d1000080d3008502e800fcff3a005c
:100b5000000006008000eb00000005004f89de0069
:100b600082017800a40037006011b800b20037009d
:100b700081002000618055000b003d000b0020002b
:100b800061fe2f000100e1001d0034008281710030
:100b9000610164008904d1000884d3000000e800ea
:100ba000faff3a0071002000610064000300700049
:100bb000020060000900320061044400e0844c003f
:100bc0000988a500050032008b05e8006808e100ef
:100bd00002003a008904d1000884d300f20f2000fb
:100be0000258e10005003d00c75ddd00f907b200d5
:100bf0008980750008007800000006000bf82700c7
:100c00008b00780000000500c70ade00f107b20083
:100c1000f50fb20008003200e1cf420002003200be
:100c20000170a00024000500810f70000100320057
:100c30000408050044000500810f700002003a001e
:100c4000140005008502e9000000400081c0480052
:100c5000fcff3b000170a000240005000004be0062
:100c6000e9ff07000003be000405be000200be004d
:100c7000e5ff0700844f7500000006000200be007b
:100c80006450e100050036006420e10002003600f7
:100c90000968a30001003a000800be000160a0003e
:100ca0004f0678004f05be004f04be00000006004e
:100cb000f0ff2f00f1ff2700f9ff3700889fbe00eb
:100cc0008a9fbe008c1f7800e4ff0700ebff330013
:100cd00003866c006450e100240032006420e100cf
:100ce000270032006150e100220032006120e10063
:100cf000210032008b854200eb07b1000134b800bf
:100d0000003ab8000804420089844a00013ab80059
:100d10000030b8008880400009014a000400330018
:100d20000000400081804800020149008b05e90075
:100d3000c909dd00830170000100320013002000aa
:100d4000c814de004814dd004709de001200b200be
:100d5000c808de000884700085ff070001f0a100cc
:100d60000cf0a70001f0a000cdff37006120e100ea
:100d7000cfff32000801be000200be00f7ff3700bf
:100d80006150e100fcff3a00c9ff3700889fbe00b8
:100d90008a9fbe00841f7800b0ff07004f007800d4
:100da00011003300f0ff2f00838f6c0006003b0022
:100db000040565000a00a7000800370009f0a60036
:100dc0001000200008003700820f5400838f5c0061
:100dd000030039001000200001003e000000200048
:100de00009f0a7000000ea004f05be004f04be0056
:100df0000000e00000000600881f7800030478006f
:100e00000300e00007003d0060001000e0801800d3
:100e100060011900e081190002003b0001f02d0083
:100e2000030037000400070008f0a70001f0a0004d
:100e30004f04780000000600889fbe008a9fbe0015
:100e400000827000040271000482710026003200ea
:100e50000004be000200be006011b8006b09200053
:100e6000950220000182cf000a0039000541b1003f
:100e70000082cf00070039000541b1000982cf0090
:100e8000040039000541b1000882cf00010039009b
:100e90000541b10005425200120032000a003b0039
:100ea00082817100610164008100d1000080d30063
:100eb0008984d3000884d3008b05e8000442e8004d
:100ec000f7ff3a00070037000804440089844c000b
:100ed00000004800818048008b05e9000442e900d9
:100ee000f9ff3a0022ff07004f05be004f04be0085
:040ef00000000600f8
:020000040000fa
:100ef4000c00fa00881f7800530907009a090700bc
:100f040064cea80064eea800254ea80000002000ce
:100f1400613124003a060700ac05070000002000f8
:100f2400a1472400b6060700c1060700830807008e
:100f3400110907006000b8005089880061898800a1
:100f44006000b80090898800a1898800b90807006a
:100f540010079800bb080700e14f500086003a00d4
:100f6400bc080700b308070010079800b108070081
:100f7400200798002e0090000080e8001000780000
:100f84008000eb00f7fe0700323323003305240012
:100f940049ff070002002000035824006cfe0700ec
:100fa400d2cc2c00c304240043ff07003007980070
:100fb400410798003e019000ce01900000002000ff
:100fc4008120240062fe070002002000030a24009e
:100fd40001fe0700b0898800c18988002e009000b6
:100fe40064004000100078008000eb00ddfe070084
:100ff40032332300330524002fff070002002000b2
:101004000358240052fe0700d2cc2c00c304240051
:1010140029ff070030079800410798003e0190001f
:10102400ce019000000020008120240048fe07002b
:1010340002002000030a2400e7fd0700f08988006d
:10104400018a88002e00900068004000100078009b
:101054008000eb00c3fe0700323323003305240075
:1010640015ff0700020020000358240038fe070083
:10107400d2cc2c00c30424000fff070030079800d3
:10108400410798003e019000ce019000000020002e
:10109400812024002efe070002002000030a240001
:1010a400cdfd0700d0898800e18988002e009000da
:1010b40066004000100078008000eb00a9fe0700e5
:1010c4003233230033052400fbfe07000200200016
:1010d400035824001efe0700d2cc2c00c3042400b5
:1010e400f5fe070030079800410798003e01900084
:1010f400ce019000000020008120240014fe07008f
:1011040002002000030a2400b3fd0700308a88008f
:10111400418a88002e009000100078008000eb00c7
:1011240090fe07003233230033052400e2fe07005b
:10113400020020000358240005fe0700d2cc2c0036
:10114400c3042400dcfe0700300798004107980020
:101154003e019000ce019000000020008120240078
:10116400fbfd070002002000030a24009afd07008b
:10117400108a8800218a8800308a8000418a800091
:1011840018c0b30002002000031f240032fe070031
:101194000000e000010035000044eb000804e0001a
:1011a40002003200254ea80001003700254ea90098
:1011b400108a8000218a800018c0b3000200200039
:1011c400031f240024fe07000000e0000100350096
:1011d4000044eb000804e0000200320064cea800e2
:1011e4000100370064cea900f0898000018a8000e4
:1011f40018c0b30002002000031f240016fe0700dd
:101204000000e000010035000044eb000804e000a9
:101214000200320064eea8000100370064eea90069
:101224000000eb00000f78000600370020080700dc
:10123400204f98006a004700110020005e07070055
:101244001e0fe800340807009e0f5000f7ff3c0013
:101254000071220001002000de0807003dff370076
:101264000000fa000cd0bf000080fb00cf80de003d
:101274009201200003002000820f5000838f580049
:10128400b2003e00000601001900370022003700ba
:101294003700370046003700290037003200370096
:1012a4005d003700660037006700370071003700c3
:1012b400720037007c003700a4003700a300370019
:1012c400a2003700a10037003b003700440037007c
:1012d400450037004e003700750037007f003700a7
:1012e400800037008a0037008b00370095003700f4
:1012f4001a30ef001c30ef000041eb006000b80032
:101304009206070012c0b3006000b8008f06070001
:1013140010c0b3000cf0b700d2808000e3808000de
:10132400803e200001002000800f5100818f590071
:101334008900360020c0b3000cf0b70087003700e6
:101344000041eb0000002000011724007f06070085
:1013540012c0b3006000b8007c06070050c0b300a0
:101364000cf0b7007d0037007e0007007b003700db
:10137400708080000000e800708088008080800019
:101384008000eb00f7fd07000041eb006f0607004b
:10139400808080008000eb00f2fd070012c0b300e3
:1013a4006a06070030c0b3000cf0b7006b003700ca
:1013b4006c000700690037000041eb0000002000ca
:1013c400011724006106070012c0b3006000b800d2
:1013d4005e06070010c1b3000cf0b7005f003700d1
:1013e400600007005d0037000041eb006000b800ba
:1013f4005606070012c0b3000000200001172400a5
:101404005206070030c1b3000cf0b7005300370098
:1014140054000700510037000041eb006000b800a1
:101424004a06070012c0b300000020000117240080
:101434004606070070c0b3000cf0b7004700370041
:1014440048000700450037000041eb000000200081
:10145400011324003d06070012c0b3000000200061
:1014640001132c003906070090c0b3000cf0b7003c
:101474003a0037003b000700380037000041eb001a
:101484000000200001132c003006070012c0b30036
:1014940000002000011324002c060700b0c0b30094
:1014a4000cf0b7002d0037002e0007002b0037008a
:1014b4000041eb0000002000011424002306070073
:1014c40012c0b30000002000011424001f0607000e
:1014d40050c1b3000cf0b700200037002100070012
:1014e4001e0037000041eb0000002000010c240026
:1014f4001606070012c0b3000000200001142400e7
:101504001206070070c1b3000cf0b70013003700d7
:1015140014000700110037000041eb000000200018
:10152400011424000906070012c0b30000002000c3
:10153400010c24000506070090c1b3000cf0b700ad
:101544000600370007000700040037000c70ef00a6
:101554000000000001003700000000000080fa00d5
:10156400000006000200fa00881f78000040eb002b
:10157400004f7800b0898000c189800018c0b30092
:1015840002002000831c240035fd07000000e00059
:1015940001003c000044eb000804e0002c00320091
:1015a400f0898000018a800018c0b3000200200086
:1015b400031f240028fd07000000e000010035009f
:1015c4000044eb000804e00021003200d0898000d0
:1015d400e189800018c0b30002002000831c2400ad
:1015e4001ffd07000000e00001003c000044eb0088
:1015f4000804e00016003200308a8000418a80002e
:1016040018c0b300020020000317240014fd0700d3
:101614000000e00001003c000044eb000804e0008e
:101624000b003200108a8000218a800018c0b300a9
:10163400020020000317240009fd07000000e00059
:1016440001003c000044eb000804e00063003a00a1
:10165400b0898000c189800018c0b3000200200056
:10166400831c2400fcfc07000000e000010035009e
:101674000044eb000804e00016003200f08980000a
:10168400018a800018c0b30002002000031f240058
:10169400f3fc07000000e00001003c000044eb0004
:1016a4000804e0000b003200d0898000e18980004a
:1016b40018c0b30002002000831c2400e6fc0700cd
:1016c4000000e000010035000044eb000804e000e5
:1016d40042003a00b0898000c189800018c0b3007c
:1016e40002002000831c2400dbfc07000000e00053
:1016f400010035000044eb000804e000160032004d
:10170400f0898000018a800018c0b3000200200024
:10171400031f2400d0fc07000000e0000100350096
:101724000044eb000804e0000b003200d089800084
:10173400e189800018c0b30002002000831c24004b
:10174400c5fc07000000e000010035000044eb0088
:101754000804e00021003a00f0898000018a80003a
:1017640018c0b30002002000031f2400bafc0700c5
:101774000000e000010035000044eb000804e00034
:1017840019003200308a8000418a800018c0b300fa
:101794000200200003172400affc07000000e00053
:1017a400010035000044eb000804e0000e003200a4
:1017b400108a8000218a800018c0b3000200200033
:1017c40003172400a4fc07000000e000010035001a
:1017d4000044eb000804e0000300320030c0b30012
:1017e400004f780083023700b0898000c1898000ef
:1017f40018c0b30002002000831c240098fc0700da
:101804000000e00001003c000044eb000804e0009c
:1018140021003200f0898000018a800018c0b300e2
:1018240002002000031f24008dfc07000000e000dc
:1018340001003c000044eb000804e0001600320004
:10184400d0898000e189800018c0b3000200200024
:10185400831c240080fc07000000e0000100350028
:101864000044eb000804e0000b003200108a800002
:10187400218a800018c0b30002002000031724004e
:1018840077fc07000000e00001003c000044eb008e
:101894000804e0006e003a00b0898000c18980002d
:1018a40018c0b30002002000831c24006cfc070055
:1018b4000000e00001003c000044eb000804e000ec
:1018c4002c003200f0898000018a800018c0b30027
:1018d40002002000031f24005ffc07000000e0005a
:1018e400010035000044eb000804e0002100320050
:1018f400d0898000e189800018c0b3000200200074
:10190400831c240054fc07000000e00001003500a3
:101914000044eb000804e00016003200308a800026
:10192400418a800018c0b30002002000031724007d
:101934004bfc07000000e00001003c000044eb0009
:101944000804e0000b003200108a8000218a800025
:1019540018c0b300020020000317240040fc070055
:101964000000e00001003c000044eb000804e0003b
:1019740037003a00f0898000018a800018c0b30063
:1019840002002000031f240033fc07000000e000d5
:10199400010035000044eb000804e00016003200aa
:1019a400308a8000418a800018c0b3000200200001
:1019b4000317240028fc07000000e00001003500a4
:1019c4000044eb000804e0000b003200108a8000a1
:1019d400218a800018c0b3000200200003172400ed
:1019e4001ffc07000000e00001003c000044eb0085
:1019f4000804e00016003a00b0898000c189800024
:101a040018c0b30002002000831c240012fc07004d
:101a14000000e000010035000044eb000804e00091
:101a24000e003200308a8000418a800018c0b30062
:101a3400020020000317240007fc07000000e00058
:101a4400010035000044eb000804e000030032000c
:101a540010c0b300004f7800e6013700b089800061
:101a6400c189800018c0b30002002000831c240038
:101a7400f9fb07000000e000010035000044eb0022
:101a84000804e0002c003200f0898000018a800004
:101a940018c0b30002002000031f2400f0fb07005d
:101aa4000000e00001003c000044eb000804e000fa
:101ab40021003200d0898000e189800018c0b30081
:101ac40002002000831c2400e5fb07000000e00066
:101ad40001003c000044eb000804e0001600320062
:101ae400308a8000418a800018c0b30002002000c0
:101af40003172400dafb07000000e00001003c00ab
:101b04000044eb000804e0000b003200108a80005f
:101b1400218a800018c0b3000200200003172400ab
:101b2400cffb07000000e00001003c000044eb0094
:101b34000804e000a5003a00b0898000c189800053
:101b440018c0b30002002000831c2400c2fb07005d
:101b54000000e000010035000044eb000804e00050
:101b64002c003200f0898000018a800018c0b30084
:101b740002002000031f2400b9fb07000000e0005e
:101b840001003c000044eb000804e00021003200a6
:101b9400d0898000e189800018c0b30002002000d1
:101ba400831c2400aefb07000000e00001003c00a1
:101bb4000044eb000804e00016003200308a800084
:101bc400418a800018c0b3000200200003172400db
:101bd400a3fb07000000e00001003c000044eb0010
:101be4000804e0000b003200108a8000218a800083
:101bf40018c0b300020020000317240096fb07005e
:101c04000000e000010035000044eb000804e0009f
:101c14006e003a00b0898000c189800018c0b3000a
:101c240002002000831c24008bfb07000000e0005e
:101c3400010035000044eb000804e0002c003200f1
:101c4400f0898000018a800018c0b30002002000df
:101c5400031f240080fb07000000e00001003500a2
:101c64000044eb000804e00021003200d089800029
:101c7400e189800018c0b30002002000831c240006
:101c840077fb07000000e00001003c000044eb008b
:101c94000804e00016003200308a8000418a800087
:101ca40018c0b30002002000031724006cfb0700d7
:101cb4000000e00001003c000044eb000804e000e8
:101cc4000b003200108a8000218a800018c0b30003
:101cd400020020000317240061fb07000000e0005d
:101ce40001003c000044eb000804e00037003a0027
:101cf400f0898000018a800018c0b300020020002f
:101d0400031f240054fb07000000e000010035001d
:101d14000044eb000804e00016003200308a800022
:101d2400418a800018c0b300020020000317240079
:101d34004bfb07000000e00001003c000044eb0006
:101d44000804e0000b003200108a8000218a800021
:101d540018c0b30002002000031724003efb070054
:101d64000000e000010035000044eb000804e0003e
:101d740016003a00d0898000e189800018c0b300c1
:101d840002002000831c240033fb07000000e00055
:101d9400010035000044eb000804e0000e003200ae
:101da400108a8000218a800018c0b300020020003d
:101db4000317240028fb07000000e00001003500a1
:101dc4000044eb000804e0000300320020c0b3002c
:101dd400004f780007013700b0898000c189800076
:101de40018c0b30002002000831c24001cfb070061
:101df4000000e00001003c000044eb000804e000a7
:101e04004f003200f0898000018a800018c0b300be
:101e140002002000031f240011fb07000000e00063
:101e240001003c000044eb000804e00044003200e0
:101e3400d0898000e189800018c0b300020020002e
:101e4400831c240006fb07000000e00001003c00a6
:101e54000044eb000804e00039003200308a8000be
:101e6400418a800018c0b300020020000317240038
:101e7400f9fa07000000e000010035000044eb001f
:101e84000804e0002e003200108a8000218a8000bd
:101e940018c0b3000200200003172400eefa070064
:101ea4000000e000010035000044eb000804e000fd
:101eb40023003200348a8000458a8000108a800022
:101ec400218a800018c0b3000001be000400be00d7
:101ed400e3fa07000000e00001003c000044eb00ce
:101ee4000804e00003003200c0c0b300004f7800d3
:101ef400c0003700348a8000458a8000108a800040
:101f0400218a800018c0b3000001be000400be0096
:101f1400d1fa07000000e000010035000044eb00a6
:101f24000804e00003003200b0c0b300004f7800a2
:101f3400b0003700a0c0b300004f7800ad003700f8
:101f4400b0898000c189800018c0b300020020005d
:101f5400831c2400c2fa07000000e00001003c00da
:101f64000044eb000804e0002f003200f0898000f8
:101f7400018a800018c0b30002002000031f24005f
:101f8400b7fa07000000e00001003c000044eb0049
:101f94000804e00024003200d0898000e189800038
:101fa40018c0b30002002000831c2400acfa070010
:101fb4000000e00001003c000044eb000804e000e5
:101fc40019003200308a8000418a800018c0b300b2
:101fd40002002000031724009ffa07000000e0001d
:101fe400010035000044eb000804e0000e0032005c
:101ff400108a8000218a800018c0b30002002000eb
:102004000317240096fa07000000e00001003c00da
:102014000044eb000804e0000300320090c0b30069
:10202400004f780073003700b0898000c1898000b8
:1020340018c0b30002002000831c240088fa0700a3
:102044000000e00001003c000044eb000804e00054
:102054002f003200f0898000018a800018c0b3008c
:1020640002002000031f24007dfa07000000e000a6
:1020740001003c000044eb000804e00024003200ae
:10208400d0898000e189800018c0b30002002000dc
:10209400831c240072fa07000000e00001003c00e9
:1020a4000044eb000804e00019003200308a80008c
:1020b400418a800018c0b3000200200003172400e6
:1020c40067fa07000000e00001003c000044eb0058
:1020d4000804e0000e003200108a8000218a80008b
:1020e40018c0b30002002000031724005afa0700a6
:1020f4000000e000010035000044eb000804e000ab
:102104000300320080c0b300004f7800390037006c
:10211400b0898000c189800018c0b300020020008b
:10212400831c24004efa07000000e00001003c007c
:102134000044eb000804e0002e003200f089800027
:10214400018a800018c0b30002002000031f24008d
:1021540043fa07000000e00001003c000044eb00eb
:102164000804e00023003200d0898000e189800067
:1021740018c0b30002002000831c240038fa0700b2
:102184000000e00001003c000044eb000804e00013
:1021940018003200308a8000418a800018c0b300e1
:1021a40002002000031724002dfa07000000e000bd
:1021b40001003c000044eb000804e0000d00320084
:1021c400108a8000218a800018c0b3000200200019
:1021d4000317240022fa07000000e00001003c007d
:1021e4000044eb000804e000020032000040eb0071
:1021f400004f78001e407800e24f500003003a0080
:1022040040c0b30012f0b700e40037001e4078006d
:10221400e14f500003003a0060c0b30012f0b70071
:10222400de0037001e407800e34f50000a003a00f9
:1022340070808000610060000000e00003003a004c
:1022440080c0b30012f0b700d4003700a0c0b300c0
:1022540012f0b700d10037001e407800e84f50005c
:1022640003003a0000c1b30012f0b700cb003700fe
:102274001e407800e94f500003003a0020c1b3002b
:1022840012f0b700c50037001e407800ea4f500036
:1022940003003a0040c1b30012f0b700bf0037009a
:1022a4001e407800eb4f500003003a0060c1b300b9
:1022b40012f0b700b90037001e407800ec4f500010
:1022c40003003a0080c1b30012f0b700b300370036
:1022d4001e4078000004e000b0003a00b08980009d
:1022e400c189800018c0b30002002000831c2400b0
:1022f400d9f907000000e000010035000044eb00bc
:102304000804e0002f003200f0898000018a800078
:1023140018c0b30002002000031f2400cef90700f8
:102324000000e000010035000044eb000804e00078
:1023340024003200d0898000e189800018c0b300f5
:1023440002002000831c2400c3f907000000e00001
:10235400010035000044eb000804e00019003200dd
:10236400308a8000418a800018c0b3000200200037
:1023740003172400b8f907000000e000010035004d
:102384000044eb000804e0000e003200108a8000d4
:10239400218a800018c0b300020020000317240023
:1023a400adf907000000e000010035000044eb0037
:1023b4000804e00003003200f00020008080880060
:1023c40073003700b0898000c189800018c0b30051
:1023d40002002000032224009ff907000000e0000f
:1023e400010035000044eb000804e0002f00320037
:1023f400f0898000018a800018c0b3000200200028
:102404008324240094f907000000e0000100350053
:102414000044eb000804e00024003200d08980006e
:10242400e189800018c0b3000200200003222400c8
:1024340089f907000000e000010035000044eb00ca
:102444000804e00019003200308a8000418a8000cc
:1024540018c0b30002002000031f24007ef9070007
:102464000000e000010035000044eb000804e00037
:102474000e003200108a8000218a800018c0b30048
:1024840002002000031f240073f907000000e0008d
:10249400010035000044eb000804e00003003200b2
:1024a400200120008080880039003700b089800036
:1024b400c189800018c0b300020020000322240058
:1024c40067f907000000e00001003d000044eb0054
:1024d4000804e0002e003200f0898000018a8000a8
:1024e40018c0b30002002000832424005cf9070014
:1024f4000000e00001003d000044eb000804e0009f
:1025040023003200d0898000e189800018c0b30024
:10251400020020000322240051f907000000e0001b
:1025240001003d000044eb000804e0001800320004
:10253400308a8000418a800018c0b3000200200065
:10254400031f240046f907000000e00001003d00dd
:102554000044eb000804e0000d003200108a800003
:10256400218a800018c0b30002002000031f240049
:102574003bf907000000e00001003d000044eb00cf
:102584000804e0000200320050012000808088002e
:1025940064eea80020c0b30012f0b70012d0bf0050
:1025a4008080fb000cd0bf000080fb000000e9002d
:1025b400808f50000200320012d0bf000cf0b70030
:1025c4004f0478000080fa00000006000000fa00c2
:1025d40013e1a90011e1a9001061a8001021a900cc
:1025e40081088000f0fc2f000080600080088800d3
:1025f4000a21ef000621ef00202620007008880041
:1026040000a02500600888002142800080ff2f0080
:10261400008060000000a000204288000108a9009a
:102624002108a80011e1a8000080fa0000000600bb
:102634000400fa00881f7800008fbe002108800083
:10264400f0fc2f0000806000200888001e01780044
:102654009e0190000068290081c12400bcf8070095
:1026640018c0b30002f02f00f3772400fcf8070031
:102674000000e00001003c000044eb000804e0001e
:102684005400320021088000f0fc2f00008060001c
:102694000040a000200888001e0178009e019000e0
:1026a4000068290081c12400a9f807000200200065
:1026b40003102400a6f8070018c0b30002f02f008e
:1026c400f3772400e6f807000000e00001003c0076
:1026d4000044eb000804e0003200320021088000ce
:1026e400f0fc2f00008060000050a000200888004b
:1026f4001e0178009e0190000068290081c1240019
:1027040093f80700020020000328240090f8070033
:1027140018c0b30002f02f00f3772400d0f80700ac
:102724000000e00001003c000044eb000804e0006d
:102734001000320021088000000320000100700016
:10274400200888001e0178009e019000006829007e
:1027540081c124007ef80700020020000338240011
:102764007bf80700c0f80700000078001008880014
:10277400200037001e0178009e01900000682900a7
:1027840081c1240072f807000200200003282400fd
:102794006ff80700b4f807000000780010088800fc
:1027a400140037001e0178009e0190000068290083
:1027b40081c1240066f807000200200003102400f1
:1027c40063f80700a8f807000000780010088800e4
:1027d400080037001e0178009e019000006829005f
:1027e40081c124005af807009ff807000000780010
:1027f400100888004f0478000080fa0000000600ea
:102804000400fa00008fbe0005e1a9000421a9001c
:102814000068a9002068a80005e1a8001e0078004f
:102824009e00900082ff07000080fa00000006006e
:102834000400fa00881f7800008fbe00f1088000b1
:10284400f0fc2f0000806000f00888001e01780072
:102854009e0190000068290081c124003cf8070013
:1028640018c0b30002f02f00f37724007cf80700af
:102874000000e00001003c000044eb000804e0001c
:1028840054003200f1088000f0fc2f00008060004a
:102894000040a000f00888001e0178009e0190000e
:1028a4000068290081c1240029f8070002002000e3
:1028b4000310240026f8070018c0b30002f02f000c
:1028c400f377240066f807000000e00001003c00f4
:1028d4000044eb000804e00032003200f1088000fc
:1028e400f0fc2f00008060000050a000f008880079
:1028f4001e0178009e0190000068290081c1240017
:1029040013f80700020020000328240010f8070031
:1029140018c0b30002f02f00f377240050f807002a
:102924000000e00001003c000044eb000804e0006b
:1029340010003200f1088000000320000100700044
:10294400f00888001e0178009e01900000682900ac
:1029540081c12400fef70700020020000338240090
:10296400fbf7070040f80700000078001008880013
:10297400200037001e0178009e01900000682900a5
:1029840081c12400f2f7070002002000032824007c
:10299400eff7070034f807000000780010088800fb
:1029a400140037001e0178009e0190000068290081
:1029b40081c12400e6f70700020020000310240070
:1029c400e3f7070028f807000000780010088800e3
:1029d400080037001e0178009e019000006829005d
:1029e40081c12400daf707001ff80700000078000f
:1029f400100888004f0478000080fa0000000600e8
:102a04000400fa00008fbe001fe1a9001e21a900e6
:102a14000368a9002368a8001fe1a8001e0078002d
:102a24009e00900082ff07000080fa00000006006c
:102a34000000fa001160800080ff2f000080600019
:102a44001060880000fa20002060880023aca800f1
:102a5400238ca80011618000f03f2f0000806000eb
:102a640000a0a000106188003000200020618800d0
:102a7400c3aca800c38ca80011668000f03f2f00ef
:102a84000080600000a0a0001066880030002000d4
:102a94002066880001eca8000080fa00000006000f
:102aa4000000fa00889fbe008a9fbe0094898000bf
:102ab400a5898000708980008189800018c0b300d6
:102ac4000001be000400be00e3f707000000e000c0
:102ad400010035000044eb000804e0000f00320060
:102ae40078898000898980009a898000ab89800078
:102af40022d0bf000080fb00cf80de0016f8070064
:102b04000001be000a00be0034f707000801be0041
:102b1400d000070090898800a189880094898000ea
:102b2400a5898000708980008189800018c0b30065
:102b34000001be000400be00c9f707000000e00069
:102b440001003c000044eb000804e0000f003200e8
:102b540078898000898980009a898000ab89800007
:102b640022d0bf000080fb00cf80de00faf7070010
:102b74000001be000a00be0017f707000801be00ee
:102b84009c00070090898800a189880090898000b2
:102b9400a189800018c0b3006011b800b0f7070025
:102ba4000000e00001003c000044eb000804e000e9
:102bb40004003200c3cca90024eea800c3eca80092
:102bc40003003700c3eca90024cea800c3cca8009e
:102bd40090898000a1898000700007000200200015
:102be4000322240034f80700c0f70700000078002f
:102bf40030668800548980006589800030898000af
:102c04004189800018c0b3000001be000400be006a
:102c140091f707000000e000010035000044eb00dc
:102c24000804e0000f0032003889800049898000e0
:102c34005a8980006b89800022d0bf000080fb008d
:102c4400cf80de00c4f707000001be000a00be000a
:102c5400e2f607000801be007e00070050898800e4
:102c640061898800548980006589800030898000ea
:102c74004189800018c0b3000001be000400be00fa
:102c840077f707000000e00001003c000044eb007f
:102c94000804e0000f003200388980004989800070
:102ca4005a8980006b89800022d0bf000080fb001d
:102cb400cf80de00a8f707000001be000a00be00b6
:102cc400c5f607000801be004a00070050898800c5
:102cd40061898800508980006189800018c0b30030
:102ce4006011b8005ef707000000e00001003c003e
:102cf4000044eb000804e0000400320023cca900e7
:102d040015eea80023eca8000300370023eca9006b
:102d140015cea80023cca8005089800061898000ca
:102d24001e0007000200200003222400e2f707002f
:102d34006ef7070000007800306188004f05be0080
:102d44004f04be000080fa00000006000600fa00ee
:102d5400008fbe00424798004e409000e14f500063
:102d640004003a001e0178009e0190003289880018
:102d7400438988004e4090000004e00005003a00ba
:102d84001e0078009e00900001f0a2007089880067
:102d9400818988000080fa00000006000400fa001f
:102da400881f7800008fbe0018c0b3006011b800ff
:102db4001e0078009e00900029f707000000e00044
:102dc40001003d000044eb000804e0000300320071
:102dd4001e0078009e009000030037001e0078005b
:102de4009e00900001f0a2004f0478000080fa00d9
:102df400000006000800fa00881f7800008fbe005b
:102e0400220798003307980018c0b3002e019000e1
:102e1400be0190001e0078009e00900010f707008d
:102e24000000e00001003c000044eb000804e00066
:102e3400030032001e0078009e009000020037005c
:102e44002e009000be0090004f0478000080fa002d
:102e5400000006000800fa00881f7800008fbe00fa
:102e6400220798003307980018c0b3002e01900081
:102e7400be0190001e0078009e009000f6f6070048
:102e84000000e000010035000044eb000804e0000d
:102e9400030032001e0078009e00900002003700fc
:102ea4002e009000be0090004f0478000080fa00cd
:102eb400000006000c00fa00881f7800008fbe0096
:102ec4002207980033079800440798005507980094
:102ed40018c0b3004e019000de0190001e0078007f
:102ee4009e009000def607000000e00001003c00b8
:102ef4000044eb000804e000040032004e0190009e
:102f0400de019000028fbe000e00370018c0b3002f
:102f14002e019000be0190001e0078009e009000db
:102f2400cdf607000000e000010035000044eb008e
:102f34000804e000030032002e019000be0190005e
:102f4400028fbe001e0078009e0090004f0478009f
:102f54000080fa00000006000400fa00008fbe00a2
:102f6400b2fd2000930424001e0078009e0090000f
:102f740077f6070002002000433324004ef70700d1
:102f84000080fa00000006000400fa00008fbe0072
:102f9400b2fd2000930424001e0078009e009000df
:102fa40045f70700020020004333240068f60700b9
:102fb4000080fa00000006000600fa0010079800de
:102fc400210798000040eb00004f780054000700f0
:102fd400ae009000810f5000110034000040eb005f
:102fe400004f7800060037001e80fb009e00900012
:102ff40000804000104078000b0007001e4fe800de
:103004009e80fb002e009000808f5000f6ff35005c
:103014002e0007000004e00001003a00220007002f
:103024000080fa00000006000200fa00004f780059
:10303400a080800041022100008040001e487800ea
:10304400a08080000000e800a0808800a1808000ab
:10305400f0072000808f5000010034001430ef008e
:103064000080fa00000006000200fa00b080800030
:103074004102210000804000104f7800b0808000a1
:103084000000e800b0808800b1808000f0072000d4
:10309400808f5000010034001630ef001e4078008d
:1030a4000080fa00000006000200fa0010c0b3001d
:1030b40018f0b700ecff0700004f78001e80fb00fb
:1030c400201188000080fa00000006000000fa00c9
:1030d40018d0bf000080fa00000006000200fa00c9
:1030e400a1808000b0808000808f500004003500f3
:1030f400a1808000b0808000008f50000500370060
:10310400a1808000b0808000008050000108200071
:10311400010f40001e0078000080fa000000060045
:103124000200fa00edff070001082000008f5000a4
:103134001e0078000080fa00000006000000fa007b
:1031440021e3a8002143a80001198000f0cf2f003b
:1031540000806000001988002043a9000119800044
:10316400000e200001007000001988001119800071
:10317400f0ff210000806000101988002343a8009c
:1031840011198000f0cf2f00008060001019880012
:103194001119800030f82f00008060000040a0006a
:1031a400101988002203a9002223a90025e3a900fd
:1031b400f0c0b30024e3b70021198000f00f2e0003
:1031c4008080600000f02000010070002019880059
:1031d4003303a9002e0ea8002f6ea8006f2ea8009e
:1031e4001e2ea8004feea8003063a80030c3a8002c
:1031f4003163a80031e3a8002e03a8004119800020
:1032040000fc2f00008060004019880028e3a9001a
:1032140001a8a90021a8a80021e3a8000080fa00c1
:10322400000006000000fa002023a8000080fa0035
:10323400000006000000fa00200021000080fa00cf
:10324400000006000000fa000ad0bf000080fa0067
:10325400000006000000fa000a70ef000080fa0087
:10326400000006000200fa00004f78003b0007004f
:103274000000e0000c003400f0808000410a2100ce
:10328400008040001e487800f08080000000e800c4
:10329400f0808800f1808000f0072000808f5000cb
:1032a400010034001e30ef000080fa000000060028
:1032b4000200fa0000818000410a210000804000e1
:1032c400104f7800008180000000e8000081880031
:1032d40001818000f0072000808f5000010034003d
:1032e4002030ef001e4078000080fa000000060045
:1032f4000000fa00f180800000818000808f50007f
:103304000200320010c0b300010037000040eb009f
:103314000080fa00000006000200fa00f18080003c
:1033240000818000808f500004003500f18080000f
:1033340000818000008f500005003700f18080007c
:10334400008180000080500001082000010f40002f
:103354001e0078000080fa00000006000200fa0057
:10336400edff070001082000008f50001e007800c8
:103374000080fa00000006000000fa002002a90004
:103384000111800090ff2f00008060000011880070
:1033940020a2a9002062a800500520004011880046
:1033a40023a2a90023e2a9000188a9002188a8007a
:1033b40011118000f0f32f000080600010118800cc
:1033c4000168a9002168a80021e2a8002342a800fe
:1033d4000080fa00000006000600fa0010079800ba
:1033e400210798000040eb00004f78000040eb00fc
:1033f400004f78000e00370000000000111180001b
:1034040000202000008060000000e000fbff3a0084
:103414001e009000104078000080fb0020118800fe
:103424001e0090000000e800100798001e4fe800fe
:103434009e80fb002e009000808f5000eeff350030
:103444000080fa00000006000000fa00f0032000eb
:10345400303a8800213a8000f0f32f0000806000a9
:10346400203a8800213a800000fe2f00008060008e
:103474000000a000203a88001200200080072000ed
:10348400a109200033742000804978008149780024
:1034940082497800103a8000000178000200a00000
:1034a4006004200071052000237420008049780006
:1034b400814978008249780000000000113a8000b8
:1034c400000027008080600000002100808f5000f1
:1034d400faff3a0000000000113a800000022000c8
:1034e400008060000000e000fbff32000080fa0072
:0434f40000000600ce
:020000040000fa
:1034f8000c10000008000000800000001a100000f6
:1035080004000000800000002411000026000000d4
:10351800800000002210000002000000820000006d
:1035280008000000001000000c00000080000000ef
:10353800241000008000000080000000141000002b
:103548000600000080000000a410000080000000b9
:10355800800000001e100000040000008000000031
:04356800000000005f
:020000040000fa
:10356c000000fa000e2eef001e2eef002e2eef00a4
:10357c003e2eef004e2eef005e2eef006e2eef0073
:10358c00214ea90060cea90060eea90011cea900c1
:10359c0011eea90020cea90020eea9002136800052
:1035ac0000f82f00008060008001b30020368800f6
:1035bc001134800000fc2f00008060000000a0008f
:0c35cc00103488000080fa0000000600a7
:020000040000fa
:1035d800f03fb1000180b10006003500ee0309009c
:1035e80000000000403fb1000180b100fbff3d003a
:1035f8001000b000203fb000020035000080090034
:083608000000000000000600b4
:020000040000fa
:02000004000af0
:04afe000cfff00009f
:020000040000fa
:02000004000af0
:04afe400ffff00006b
:020000040000fa
:02000004000af0
:04afe8007fff0000e7
:020000040000fa
:02000004000af0
:04afec005fff000003
:020000040000fa
:02000004000af0
:04aff00038ff000026
:020000040000fa
:02000004000af0
:04aff400ffff00005b
:00000001FF
