:020000040000fa
:080000000002040000000000f2
:020000040000fa
:04000800ac03000045
:020000040000fa
:04000c00ac03000041
:020000040000fa
:04001000ac0300003d
:020000040000fa
:04001400ac03000039
:020000040000fa
:04001800ac03000035
:020000040000fa
:04001c00ac03000031
:020000040000fa
:04002000ac0300002d
:020000040000fa
:04002400ac03000029
:020000040000fa
:04002800ac03000025
:020000040000fa
:04002c00ac03000021
:020000040000fa
:04003000ac0300001d
:020000040000fa
:0400340002030000c3
:020000040000fa
:04003800ac03000015
:020000040000fa
:04003c00ac03000011
:020000040000fa
:04004000ac0300000d
:020000040000fa
:04004400ac03000009
:020000040000fa
:04004800fa020000b8
:020000040000fa
:04004c00ac03000001
:020000040000fa
:04005000ac030000fd
:020000040000fa
:040054007a0300002b
:020000040000fa
:04005800ac030000f5
:020000040000fa
:04005c004c03000051
:020000040000fa
:04006000ac030000ed
:020000040000fa
:04006400ac030000e9
:020000040000fa
:04006800ac030000e5
:020000040000fa
:04006c00ac030000e1
:020000040000fa
:04007000ac030000dd
:020000040000fa
:04007400ac030000d9
:020000040000fa
:04007800ac030000d5
:020000040000fa
:04007c00ac030000d1
:020000040000fa
:04008000ac030000cd
:020000040000fa
:04008400ac030000c9
:020000040000fa
:04008800ac030000c5
:020000040000fa
:04008c00ac030000c1
:020000040000fa
:04009000ac030000bd
:020000040000fa
:040094002203000043
:020000040000fa
:04009800ac030000b5
:020000040000fa
:04009c00ac030000b1
:020000040000fa
:0400a000ac030000ad
:020000040000fa
:0400a400ac030000a9
:020000040000fa
:0400a800ac030000a5
:020000040000fa
:0400ac00ac030000a1
:020000040000fa
:0400b000ac0300009d
:020000040000fa
:0400b400ac03000099
:020000040000fa
:0400b800ac03000095
:020000040000fa
:0400bc00ac03000091
:020000040000fa
:0400c000ac0300008d
:020000040000fa
:0400c400ac03000089
:020000040000fa
:0400c800ac03000085
:020000040000fa
:0400cc00ac03000081
:020000040000fa
:0400d000ac0300007d
:020000040000fa
:0400d400ac03000079
:020000040000fa
:0400d800ac03000075
:020000040000fa
:0400dc00ac03000071
:020000040000fa
:0400e000ac0300006d
:020000040000fa
:0400e400ac03000069
:020000040000fa
:0400e800ac03000065
:020000040000fa
:0400ec00ac03000061
:020000040000fa
:0400f000ac0300005d
:020000040000fa
:0400f400ac03000059
:020000040000fa
:0400f800ac03000055
:020000040000fa
:0400fc00ac03000051
:020000040000fa
:04010000ac0300004c
:020000040000fa
:04010400ac03000048
:020000040000fa
:04010800ac03000044
:020000040000fa
:04010c00ac03000040
:020000040000fa
:04011000ac0300003c
:020000040000fa
:04011400ac03000038
:020000040000fa
:04011800ac03000034
:020000040000fa
:04011c00ac03000030
:020000040000fa
:04012000ac0300002c
:020000040000fa
:04012400ac03000028
:020000040000fa
:04012800ac03000024
:020000040000fa
:04012c00ac03000020
:020000040000fa
:04013000ac0300001c
:020000040000fa
:04013400ac03000018
:020000040000fa
:04013800ac03000014
:020000040000fa
:04013c00ac03000010
:020000040000fa
:04014000ac0300000c
:020000040000fa
:04014400ac03000008
:020000040000fa
:04014800ac03000004
:020000040000fa
:04014c00ac03000000
:020000040000fa
:04015000ac030000fc
:020000040000fa
:04015400ac030000f8
:020000040000fa
:04015800ac030000f4
:020000040000fa
:04015c00ac030000f0
:020000040000fa
:04016000ac030000ec
:020000040000fa
:04016400ac030000e8
:020000040000fa
:04016800ac030000e4
:020000040000fa
:04016c00ac030000e0
:020000040000fa
:04017000ac030000dc
:020000040000fa
:04017400ac030000d8
:020000040000fa
:04017800ac030000d4
:020000040000fa
:04017c00ac030000d0
:020000040000fa
:04018000ac030000cc
:020000040000fa
:04018400ac030000c8
:020000040000fa
:04018800ac030000c4
:020000040000fa
:04018c00ac030000c0
:020000040000fa
:04019000ac030000bc
:020000040000fa
:04019400ac030000b8
:020000040000fa
:04019800ac030000b4
:020000040000fa
:04019c00ac030000b0
:020000040000fa
:0401a000ac030000ac
:020000040000fa
:0401a400ac030000a8
:020000040000fa
:0401a800ac030000a4
:020000040000fa
:0401ac00ac030000a0
:020000040000fa
:0401b000ac0300009c
:020000040000fa
:0401b400ac03000098
:020000040000fa
:0401b800ac03000094
:020000040000fa
:0401bc00ac03000090
:020000040000fa
:0401c000ac0300008c
:020000040000fa
:0401c400ac03000088
:020000040000fa
:0401c800ac03000084
:020000040000fa
:0401cc00ac03000080
:020000040000fa
:0401d000ac0300007c
:020000040000fa
:0401d400ac03000078
:020000040000fa
:0401d800ac03000074
:020000040000fa
:0401dc00ac03000070
:020000040000fa
:0401e000ac0300006c
:020000040000fa
:0401e400ac03000068
:020000040000fa
:0401e800ac03000064
:020000040000fa
:0401ec00ac03000060
:020000040000fa
:0401f000ac0300005c
:020000040000fa
:0401f400ac03000058
:020000040000fa
:0401f800ac03000054
:020000040000fa
:0401fc00ac03000050
:020000040000fa
:04020000ac0300004b
:020000040000fa
:04020400ac03000047
:020000040000fa
:04020800ac03000043
:020000040000fa
:04020c00ac0300003f
:020000040000fa
:04021000ac0300003b
:020000040000fa
:04021400ac03000037
:020000040000fa
:04021800ac03000033
:020000040000fa
:04021c00ac0300002f
:020000040000fa
:04022000ac0300002b
:020000040000fa
:04022400ac03000027
:020000040000fa
:04022800ac03000023
:020000040000fa
:04022c00ac0300001f
:020000040000fa
:04023000ac0300001b
:020000040000fa
:04023400ac03000017
:020000040000fa
:04023800ac03000013
:020000040000fa
:04023c00ac0300000f
:020000040000fa
:04024000ac0300000b
:020000040000fa
:04024400ac03000007
:020000040000fa
:04024800ac03000003
:020000040000fa
:04024c00ac030000ff
:020000040000fa
:04025000ac030000fb
:020000040000fa
:04025400ac030000f7
:020000040000fa
:04025800ac030000f3
:020000040000fa
:04025c00ac030000ef
:020000040000fa
:04026000ac030000eb
:020000040000fa
:04026400ac030000e7
:020000040000fa
:04026800ac030000e3
:020000040000fa
:04026c00ac030000df
:020000040000fa
:04027000ac030000db
:020000040000fa
:04027400ac030000d7
:020000040000fa
:04027800ac030000d3
:020000040000fa
:04027c00ac030000cf
:020000040000fa
:04028000ac030000cb
:020000040000fa
:100400000f0421000eff27000e01880000000000ed
:10041000000020000000e000020032000001200087
:100420002002880014000700cd0007000000e00053
:1004300003003a0020922100010020000200370052
:100440000000200001002000810f70000100320038
:100450000f000700000020000000e0000200320052
:10046000000002000000000046070200000000003b
:100470000040da000000fe00800020000000e000e4
:1004800002003200002020009001880000000600d9
:10049000a1028800800478000000eb001f003700f4
:1004a000e284440054a0b4009905ba00e2844400f8
:1004b00054a0b4009906ba00e284440054a0b400e9
:1004c0000006eb00476fde00fd07b200ae018800ba
:1004d000636ce10003003a000ad801000000eb0061
:1004e0000e003700606ce10008003a00004deb00a0
:1004f0000a05e800020039003420ec000af0a000f0
:100500008b05e900f9ff3e00040037006168e10057
:10051000010032000086eb000b00070019c7ba008b
:100520000e04e0001905ba0003003a000a00e000da
:10053000dbff3a0000000600fe07b200ae028800b2
:100540008a047800f5ff37000cd0a300e20f4d00bd
:100550001c00390089027800354dba000a05e80010
:10056000020039003420ec000af0a0008b05e900fd
:100570000f003200254dba000a05e80002003900dc
:100580003420ec000af0a0008b05e90008003200de
:100590000c00e0000600320015cdba000a05e800a4
:1005a000020039003420ec000af0a0008b05e900bd
:1005b0008984e80054a0b4000b00e000e2ff3a0098
:1005c000000006009902ba00055d78008b05e9007d
:1005d000f7ff3200c82ade00055d78008b05e900d0
:1005e000f3ff32000c00e000f1ff320019ddba0029
:1005f000eeff37000000fa000108a9000080fa00b1
:10060000004006003600f800809fbe00829fbe00ba
:10061000849fbe00869fbe000000fa000068a9000b
:10062000fd0807007c0a07000080fa004f03be00a7
:100630004f02be004f01be004f00be003600f90061
:10064000004006003600f800809fbe00829fbe007a
:10065000849fbe00869fbe000000fa000368a900c8
:10066000a0808000b180800061004000e0804800f0
:10067000a0808800b1808800d70207000080fa00bf
:100680004f03be004f02be004f01be004f00be0030
:100690003600f90000400600809fbe000000fa000e
:1006a00001a8a9000118800020002100010878009d
:1006b00011188000200021001100980021188000ee
:1006c0002000210021009800311880002000210026
:1006d000310098004118800020002100410098005e
:1006e00010c0b3000af0b7000080fa004f00be004f
:1006f00000400600801f78000000fa000168a90091
:1007000010118000640060000000e0000100320071
:100710002242a90010118000620060000000e00089
:10072000050032002222a9000400370030118000a9
:100730002011880001003700000000001011800027
:10074000610060000000e000f8ff3a000080fa005d
:100750004f007800004006000040da000000fe0074
:100760000000050003f0a200889fbe008a9fbe0023
:100770008c1f78001b010700220133006450e10048
:100780004f0032006420e1005200320003826c000e
:1007900007003b000905d0000306d000820f54007b
:1007a0000c065d0002003900020032008901780069
:1007b000030678008582550004003d000003fd001b
:1007c0008103fd008502ea008b854200840f7200e0
:1007d00002003b0060001000e08018006011b800cb
:1007e0000005eb007a28e1000a00390006007800d5
:1007f000c75ddd00f707b200878075002d00370068
:10080000828171000a017800610560008180d10059
:100810000080d3008502e900f9ff3b000604400098
:100820008784480002003b0060041400e0841c0040
:100830000988a300070032008a817100828171005b
:10084000610164008904d1000884d3008b05e800ad
:10085000170037000978a30013003a000b00e000ee
:10086000130034008b05e9000804440089844c001f
:100870000a4474000978a3000d003a000b00e00060
:10088000070034008b05e9000804440089844c000b
:1008900001003a000b0020000978a300f7ff3200a6
:1008a0000001eb0002003700828171000a0178002c
:1008b000910007000cf0a70001f0a000da0037005b
:1008c0006420e10002003a00838f6c00da003300fc
:1008d0000801be000200be00d3003700889fbe00a2
:1008e0008a9fbe008c1f7800be000700c500330041
:1008f00003866c006450e1002e0032006420e100a9
:10090000330032006150e1002f0032006120e1002d
:100910003100320085855500eb07b000090020004a
:1009200008042000050037000804440089844c00b6
:100930000a0031000603430087834b000001530087
:1009400081815b00f8ff33000203be000800a000b5
:100950000804440089844c00f6ff3900c639dd00e4
:100960008301730001003200130020008904d100cc
:100970000884d3000998a300050032000800a700ee
:100980000300a0008904d1000884d3008b05e8008f
:100990008904d1000884d3000001eb000281d20059
:1009a0005500070001f0a1000cf0a70001f0a00025
:1009b0009d0037006420e1009f0032000801be0066
:1009c0000200be00f7ff37006120e1009a0032000c
:1009d0006000b800f3ff37000000200001f8270096
:1009e000f0ff370014002000ca003700f4ff2f008a
:1009f000c80037000001be00650007000470a700b2
:100a000003f0a1006509b100160032000d003500a9
:100a10006828e10006003500f0ff2f00f1ff2700f5
:100a20000300e00013003b00010028000000050067
:100a300000004000818048008502e900fcff3a0088
:100a400008003700f88f420002003c008000eb00f5
:100a5000000005008100d1000080d3008502e8007d
:100a6000fcff3a000300e00002003b0060001000c1
:100a7000e0801800000006000001be0044000700ee
:100a80000470a70003f0a10003f8a30013003a00cc
:100a90006509b10010003200090035006928e10045
:100aa00002003500010028000000050000004000a1
:100ab000818048008502e900fcff3a000000060042
:100ac000f88f4200050035008100d1000080d3007e
:100ad0008502e800fcff3a00000006008000eb0001
:100ae000000005004f89de0082017800a400370075
:100af0006011b800b200370081002000618055000d
:100b00000b003d000b00200061fe2f000100e10002
:100b10001d00340082817100610164008904d100ec
:100b20000884d3000000e800faff3a0071002000ba
:100b300061006400030070000200600009003200e0
:100b400061044400e0844c000988a50005003200df
:100b50008b05e8006808e10002003a008904d10032
:100b60000884d300f20f20000258e10005003d0088
:100b7000c75ddd00f907b2008980750008007800c4
:100b8000000006000bf827008b007800000005002d
:100b9000c70ade00f107b200f50fb200080032000c
:100ba000e1cf4200020032000170a00024000500e5
:100bb000810f7000010032000408050044000500a8
:100bc000810f700002003a00140005008502e90060
:100bd0000000400081c04800fcff3b000170a00005
:100be000240005000004be00e9ff07000003be006a
:100bf0000405be000200be00e5ff0700844f75003b
:100c0000000006000200be006450e100050036004e
:100c10006420e100020036000968a30001003a00e8
:100c20000800be000160a0004f0678004f05be001e
:100c30004f04be0000000600f0ff2f00f1ff270068
:100c4000f9ff3700889fbe008a9fbe008c1f780086
:100c5000e4ff0700ebff330003866c006450e10003
:100c6000240032006420e100270032006150e100de
:100c7000220032006120e100210032008b85420019
:100c8000eb07b1000134b800003ab8000804420094
:100c900089844a00013ab8000030b80088804000da
:100ca00009014a0004003300000040008180480030
:100cb000020149008b05e900c909dd0083017000cc
:100cc0000100320013002000c814de004814dd00cb
:100cd0004709de001200b200c808de000884700078
:100ce00085ff070001f0a1000cf0a70001f0a000b3
:100cf000cdff37006120e100cfff32000801be00c8
:100d00000200be00f7ff37006150e100fcff3a002f
:100d1000c9ff3700889fbe008a9fbe00841f7800ed
:100d2000b0ff07004f00780011003300f0ff2f00e4
:100d3000838f6c0006003b00040565000a00a700d5
:100d40000800370009f0a600100020000800370056
:100d5000820f5400838f5c000300390010002000d4
:100d600001003e000000200009f0a7000000ea009a
:100d70004f05be004f04be000000e000000006006a
:100d8000881f7800030478000300e00007003d009e
:100d900060001000e080180060011900e081190077
:100da00002003b0001f02d000300370004000700a3
:100db00008f0a70001f0a0004f0478000000060032
:100dc000889fbe008a9fbe000082700004027100ee
:100dd00004827100260032000004be000200be0042
:100de0006011b8006b092000950220000182cf003d
:100df0000a0039000541b1000082cf000700390028
:100e00000541b1000982cf00040039000541b1005d
:100e10000882cf00010039000541b10005425200af
:100e2000120032000a003b008281710061016400ff
:100e30008100d1000080d3008984d3000884d300ce
:100e40008b05e8000442e800f7ff3a00070037008e
:100e50000804440089844c00000048008180480058
:100e60008b05e9000442e900f9ff3a0022ff070080
:0c0e70004f05be004f04be00000006004d
:020000040000fa
:100e7c00426f00006e6a00006f7500007200000087
:020000040000fa
:100e8c000800fa00881f7800a5080700cf080700a3
:100e9c0064cea80064eea800254ea8000000200037
:100eac006131240031060700a30507000000200073
:100ebc00a1472400ad060700b80607001908070073
:100ecc00620807006000b80000818800118188006a
:100edc006000b80040818800518188004f080700ed
:100eec00000f780051080700e14f500086003a00cf
:100efc005208070049080700000f78004708070050
:100f0c00100798001e0090000080e8001000780088
:100f1c008000eb00f3fe070032332300330524007e
:100f2c0045ff0700020020000358240068fe07005c
:100f3c00d2cc2c00c30424003fff070020079800ec
:100f4c00310798002e019000be0190000000200097
:100f5c00812024005efe070002002000030a24000a
:100f6c00fdfd070060818800718188001e009000e3
:100f7c0064004000100078008000eb00d9fe0700f0
:100f8c0032332300330524002bff0700020020001e
:100f9c00035824004efe0700d2cc2c00c3042400be
:100fac0025ff070020079800310798002e019000bc
:100fbc00be019000000020008120240044fe0700a8
:100fcc0002002000030a2400e3fd0700a081880032
:100fdc00b18188001e00900068004000100078006d
:100fec008000eb00bffe07003233230033052400e2
:100ffc0011ff0700020020000358240034fe0700f4
:10100c00d2cc2c00c30424000bff0700200798004f
:10101c00310798002e019000be01900000002000c6
:10102c00812024002afe070002002000030a24006d
:10103c00c9fd070080818800918188001e00900006
:10104c0066004000100078008000eb00a5fe070051
:10105c003233230033052400f7fe07000200200082
:10106c00035824001afe0700d2cc2c00c304240021
:10107c00f1fe070020079800310798002e01900020
:10108c00be019000000020008120240010fe07000b
:10109c0002002000030a2400affd0700e081880055
:1010ac00f18188001e009000100078008000eb0099
:1010bc008cfe07003233230033052400defe0700cc
:1010cc00020020000358240001fe0700d2cc2c00a3
:1010dc00c3042400d8fe07002007980031079800ad
:1010ec002e019000be019000000020008120240001
:1010fc00f7fd070002002000030a240096fd0700fc
:10110c00c0818800d1818800e0818000f18180005d
:10111c0018c0b30002002000031f24002efe07009d
:10112c000000e000010035000044eb000804e00082
:10113c0002003200254ea80001003700254ea90000
:10114c00c0818000d181800018c0b3000200200053
:10115c00031f240020fe07000000e0000100350002
:10116c000044eb000804e0000200320064cea8004a
:10117c000100370064cea900a0818000b1818000fd
:10118c0018c0b30002002000031f240012fe070049
:10119c000000e000010035000044eb000804e00012
:1011ac000200320064eea8000100370064eea900d2
:1011bc00e073280071002000bd07070000a0250087
:1011cc00212620002d08070046ff37000000fa00fa
:1011dc000cd0bf000080fb00cf80de00920120000d
:1011ec0003002000820f5000838f5800b2003e0095
:1011fc0000060100190037002200370037003700c5
:10120c004600370029003700320037005d003700f8
:10121c006600370067003700710037007200370036
:10122c007c003700a4003700a3003700a200370071
:10123c00a10037003b003700440037004500370061
:10124c004e003700750037007f00370080003700f4
:10125c008a0037008b003700950037001430ef0000
:10126c001630ef000041eb006000b800920607005a
:10127c0012c0b3006000b8008f06070010c0b300a6
:10128c000cf0b700a2808000b3808000803e20006c
:10129c0001002000800f5100818f59008900360019
:1012ac0020c0b3000cf0b700870037000041eb0002
:1012bc0000002000011724007f06070012c0b300b5
:1012cc006000b8007c06070050c0b3000cf0b700fb
:1012dc007d0037007e0007007b00370070808000a7
:1012ec000000e80070808800808080008000eb00a7
:1012fc00fcfd07000041eb006f06070080808000ba
:10130c008000eb00f7fd070012c0b3006a0607006f
:10131c0030c0b3000cf0b7006b0037006c00070056
:10132c00690037000041eb00000020000117240089
:10133c006106070012c0b3006000b8005e0607002b
:10134c0010c1b3000cf0b7005f003700600007005d
:10135c005d0037000041eb006000b8005606070046
:10136c0012c0b30000002000011724005206070031
:10137c0030c1b3000cf0b700530037005400070025
:10138c00510037000041eb006000b8004a0607002e
:10139c0012c0b3000000200001172400460607000d
:1013ac0070c0b3000cf0b7004700370048000700ce
:1013bc00450037000041eb00000020000113240021
:1013cc003d06070012c0b3000000200001132c00e2
:1013dc003906070090c0b3000cf0b7003a00370094
:1013ec003b000700380037000041eb0000002000f4
:1013fc0001132c003006070012c0b30000002000bf
:10140c00011324002c060700b0c0b3000cf0b70089
:10141c002d0037002e0007002b0037000041eb0099
:10142c0000002000011424002306070012c0b300a2
:10143c0000002000011424001f06070050c1b30057
:10144c000cf0b70020003700210007001e00370009
:10145c000041eb0000002000010c240016060700e0
:10146c0012c0b30000002000011424001206070073
:10147c0070c1b3000cf0b700130037001400070064
:10148c00110037000041eb00000020000114240083
:10149c000906070012c0b30000002000010c240054
:1014ac000506070090c1b3000cf0b700060037002a
:1014bc0007000700040037000c70ef00000000006c
:1014cc0001003700000000000080fa000000060058
:1014dc000200fa00881f78000040eb00004f7800f3
:1014ec00608180007181800018c0b3000200200070
:1014fc00831c24003afd07000000e00001003c00c2
:10150c000044eb000804e0002c003200a0818000b5
:10151c00b181800018c0b30002002000031f24001a
:10152c002dfd07000000e000010035000044eb0039
:10153c000804e0002100320080818000918180004d
:10154c0018c0b30002002000831c240024fd0700f7
:10155c000000e00001003c000044eb000804e00047
:10156c0016003200e0818000f181800018c0b300c9
:10157c00020020000317240019fd07000000e00002
:10158c0001003c000044eb000804e0000b003200ba
:10159c00c0818000d181800018c0b30002002000ff
:1015ac00031724000efd07000000e00001003c00c2
:1015bc000044eb000804e00063003a006081800006
:1015cc007181800018c0b30002002000831c24002d
:1015dc0001fd07000000e000010035000044eb00b5
:1015ec000804e00016003200a0818000b181800068
:1015fc0018c0b30002002000031f2400f8fc0700f1
:10160c000000e00001003c000044eb000804e00096
:10161c000b003200808180009181800018c0b300e3
:10162c0002002000831c2400ebfc07000000e000fb
:10163c00010035000044eb000804e00042003a00d1
:10164c00608180007181800018c0b300020020000e
:10165c00831c2400e0fc07000000e00001003500c2
:10166c000044eb000804e00016003200a08180006a
:10167c00b181800018c0b30002002000031f2400b9
:10168c00d5fc07000000e000010035000044eb0031
:10169c000804e0000b003200808180009181800002
:1016ac0018c0b30002002000831c2400cafc0700f1
:1016bc000000e000010035000044eb000804e000ed
:1016cc0021003a00a0818000b181800018c0b300d5
:1016dc0002002000031f2400bffc07000000e000f4
:1016ec00010035000044eb000804e0001900320052
:1016fc00e0818000f181800018c0b300020020005e
:10170c0003172400b4fc07000000e00001003500c2
:10171c000044eb000804e0000e003200c0818000a1
:10172c00d181800018c0b3000200200003172400f0
:10173c00a9fc07000000e000010035000044eb00ac
:10174c000804e0000300320030c0b300004f780002
:10175c0083023700608180007181800018c0b30063
:10176c0002002000831c24009dfc07000000e00008
:10177c0001003c000044eb000804e00021003200b2
:10178c00a0818000b181800018c0b300020020004d
:10179c00031f240092fc07000000e00001003c0045
:1017ac000044eb000804e000160032008081800049
:1017bc009181800018c0b30002002000831c24001b
:1017cc0085fc07000000e000010035000044eb0040
:1017dc000804e0000b003200c0818000d181800041
:1017ec0018c0b30002002000031724007cfc070083
:1017fc000000e00001003c000044eb000804e000a5
:10180c006e003a00608180007181800018c0b300c6
:10181c0002002000831c240071fc07000000e00083
:10182c0001003c000044eb000804e0002c003200f6
:10183c00a0818000b181800018c0b300020020009c
:10184c00031f240064fc07000000e00001003500c9
:10185c000044eb000804e00021003200808180008d
:10186c009181800018c0b30002002000831c24006a
:10187c0059fc07000000e000010035000044eb00bb
:10188c000804e00016003200e0818000f181800045
:10189c0018c0b300020020000317240050fc0700fe
:1018ac000000e00001003c000044eb000804e000f4
:1018bc000b003200c0818000d181800018c0b300c1
:1018cc00020020000317240045fc07000000e00084
:1018dc0001003c000044eb000804e00037003a0033
:1018ec00a0818000b181800018c0b30002002000ec
:1018fc00031f240038fc07000000e0000100350045
:10190c000044eb000804e00016003200e081800087
:10191c00f181800018c0b3000200200003172400de
:10192c002dfc07000000e000010035000044eb0036
:10193c000804e0000b003200c0818000d1818000df
:10194c0018c0b300020020000317240024fc070079
:10195c000000e00001003c000044eb000804e00043
:10196c0016003a00608180007181800018c0b300bd
:10197c0002002000831c240017fc07000000e0007c
:10198c00010035000044eb000804e0000e003200ba
:10199c00e0818000f181800018c0b30002002000bb
:1019ac00031724000cfc07000000e00001003500c8
:1019bc000044eb000804e0000300320010c0b30048
:1019cc00004f7800e6013700608180007181800053
:1019dc0018c0b30002002000831c2400fefb07008b
:1019ec000000e000010035000044eb000804e000ba
:1019fc002c003200a0818000b181800018c0b3009f
:101a0c0002002000031f2400f5fb07000000e0008b
:101a1c0001003c000044eb000804e000210032000f
:101a2c00808180009181800018c0b30002002000ea
:101a3c00831c2400eafb07000000e00001003c00ce
:101a4c000044eb000804e00016003200e081800046
:101a5c00f181800018c0b30002002000031724009d
:101a6c00dffb07000000e00001003c000044eb003d
:101a7c000804e0000b003200c0818000d18180009e
:101a8c0018c0b3000200200003172400d4fb070089
:101a9c000000e00001003c000044eb000804e00002
:101aac00a5003a00608180007181800018c0b300ed
:101abc0002002000831c2400c7fb07000000e0008c
:101acc00010035000044eb000804e0002c0032005b
:101adc00a0818000b181800018c0b30002002000fa
:101aec00031f2400befb07000000e00001003c00c7
:101afc000044eb000804e0002100320080818000eb
:101b0c009181800018c0b30002002000831c2400c7
:101b1c00b3fb07000000e00001003c000044eb00b8
:101b2c000804e00016003200e0818000f1818000a2
:101b3c0018c0b3000200200003172400a8fb070004
:101b4c000000e00001003c000044eb000804e00051
:101b5c000b003200c0818000d181800018c0b3001e
:101b6c0002002000031724009bfb07000000e0008c
:101b7c00010035000044eb000804e0006e003a0060
:101b8c00608180007181800018c0b30002002000c9
:101b9c00831c240090fb07000000e00001003500ce
:101bac000044eb000804e0002c003200a08180000f
:101bbc00b181800018c0b30002002000031f240074
:101bcc0085fb07000000e000010035000044eb003d
:101bdc000804e000210032008081800091818000a7
:101bec0018c0b30002002000831c24007cfb0700fb
:101bfc000000e00001003c000044eb000804e000a1
:101c0c0016003200e0818000f181800018c0b30022
:101c1c00020020000317240071fb07000000e00005
:101c2c0001003c000044eb000804e0000b00320013
:101c3c00c0818000d181800018c0b3000200200058
:101c4c000317240066fb07000000e00001003c00c5
:101c5c000044eb000804e00037003a00a08180004b
:101c6c00b181800018c0b30002002000031f2400c3
:101c7c0059fb07000000e000010035000044eb00b8
:101c8c000804e00016003200e0818000f181800041
:101c9c0018c0b300020020000317240050fb0700fb
:101cac000000e00001003c000044eb000804e000f0
:101cbc000b003200c0818000d181800018c0b300bd
:101ccc00020020000317240043fb07000000e00083
:101cdc00010035000044eb000804e00016003a0057
:101cec00808180009181800018c0b3000200200028
:101cfc00831c240038fb07000000e00001003500c5
:101d0c000044eb000804e0000e003200c0818000ab
:101d1c00d181800018c0b3000200200003172400fa
:101d2c002dfb07000000e000010035000044eb0033
:101d3c000804e0000300320020c0b300004f78001c
:101d4c0007013700608180007181800018c0b300ea
:101d5c0002002000831c240021fb07000000e0008f
:101d6c0001003c000044eb000804e0004f0032008e
:101d7c00a0818000b181800018c0b3000200200057
:101d8c00031f240016fb07000000e00001003c00cc
:101d9c000044eb000804e000440032008081800025
:101dac009181800018c0b30002002000831c240025
:101dbc000bfb07000000e00001003c000044eb00be
:101dcc000804e00039003200e0818000f1818000dd
:101ddc0018c0b3000200200003172400fefa07000d
:101dec000000e000010035000044eb000804e000b6
:101dfc002e003200c0818000d181800018c0b30059
:101e0c000200200003172400f3fa07000000e00092
:101e1c00010035000044eb000804e0002300320010
:101e2c00e4818000f5818000c0818000d181800038
:101e3c0018c0b3000001be000400be00e8fa0700a1
:101e4c000000e00001003c000044eb000804e0004e
:101e5c0003003200c0c0b300004f7800c000370050
:101e6c00e4818000f5818000c0818000d1818000f8
:101e7c0018c0b3000001be000400be00d6fa070073
:101e8c000000e000010035000044eb000804e00015
:101e9c0003003200b0c0b300004f7800b000370030
:101eac00a0c0b300004f7800ad0037006081800007
:101ebc007181800018c0b30002002000831c240034
:101ecc00c7fa07000000e00001003c000044eb00f2
:101edc000804e0002f003200a0818000b181800056
:101eec0018c0b30002002000031f2400bcfa070036
:101efc000000e00001003c000044eb000804e0009e
:101f0c0024003200808180009181800018c0b300d1
:101f1c0002002000831c2400b1fa07000000e0003e
:101f2c0001003c000044eb000804e0001900320002
:101f3c00e0818000f181800018c0b3000200200015
:101f4c0003172400a4fa07000000e000010035008c
:101f5c000044eb000804e0000e003200c081800059
:101f6c00d181800018c0b3000200200003172400a8
:101f7c009bfa07000000e00001003c000044eb006d
:101f8c000804e0000300320090c0b300004f78005a
:101f9c0073003700608180007181800018c0b3002d
:101fac0002002000831c24008dfa07000000e000d2
:101fbc0001003c000044eb000804e0002f0032005c
:101fcc00a0818000b181800018c0b3000200200005
:101fdc00031f240082fa07000000e00001003c000f
:101fec000044eb000804e0002400320080818000f3
:101ffc009181800018c0b30002002000831c2400d3
:10200c0077fa07000000e00001003c000044eb0000
:10201c000804e00019003200e0818000f1818000aa
:10202c0018c0b30002002000031724006cfa07004c
:10203c000000e00001003c000044eb000804e0005c
:10204c000e003200c0818000d181800018c0b30026
:10205c0002002000031724005ffa07000000e000d4
:10206c00010035000044eb000804e00003003200de
:10207c0080c0b300004f78003900370060818000c9
:10208c007181800018c0b30002002000831c240062
:10209c0053fa07000000e00001003c000044eb0094
:1020ac000804e0002e003200a0818000b181800085
:1020bc0018c0b30002002000031f240048fa0700d8
:1020cc000000e00001003c000044eb000804e000cc
:1020dc0023003200808180009181800018c0b30001
:1020ec0002002000831c24003dfa07000000e000e1
:1020fc0001003c000044eb000804e0001800320032
:10210c00e0818000f181800018c0b3000200200043
:10211c000317240032fa07000000e00001003c0025
:10212c000044eb000804e0000d003200c081800088
:10213c00d181800018c0b3000200200003172400d6
:10214c0027fa07000000e00001003c000044eb000f
:10215c000804e000020032000040eb00004f780061
:10216c001e407800e24f500003003a0040c0b3001c
:10217c0012f0b700e40037001e407800e14f500029
:10218c0003003a0060c0b30012f0b700de00370065
:10219c001e407800e34f50000a003a007080800027
:1021ac00610060000000e00003003a0080c0b30052
:1021bc0012f0b700d4003700a0c0b30012f0b70083
:1021cc00d10037001e407800e84f500003003a0061
:1021dc0000c1b30012f0b700cb0037001e407800ee
:1021ec00e94f500003003a0020c1b30012f0b700d1
:1021fc00c50037001e407800ea4f500003003a003b
:10220c0040c1b30012f0b700bf0037001e40780089
:10221c00eb4f500003003a0060c1b30012f0b7005e
:10222c00b90037001e407800ec4f500003003a0014
:10223c0080c1b30012f0b700b30037001e40780025
:10224c000004e000b0003a006081800071818000e1
:10225c0018c0b30002002000831c2400def9070024
:10226c000000e000010035000044eb000804e00031
:10227c002f003200a0818000b181800018c0b30013
:10228c0002002000031f2400d3f907000000e00027
:10229c00010035000044eb000804e000240032008b
:1022ac00808180009181800018c0b3000200200062
:1022bc00831c2400c8f907000000e0000100350071
:1022cc000044eb000804e00019003200e0818000bb
:1022dc00f181800018c0b300020020000317240015
:1022ec00bdf907000000e000010035000044eb00e0
:1022fc000804e0000e003200c0818000d181800013
:10230c0018c0b3000200200003172400b2f9070024
:10231c000000e000010035000044eb000804e00080
:10232c0003003200f000200080808800730037002a
:10233c00608180007181800018c0b3000200200011
:10234c0003222400a4f907000000e000010035007e
:10235c000044eb000804e0002f003200a081800054
:10236c00b181800018c0b300020020008324240037
:10237c0099f907000000e000010035000044eb0073
:10238c000804e000240032008081800091818000ec
:10239c0018c0b30002002000032224008ef90700ad
:1023ac000000e000010035000044eb000804e000f0
:1023bc0019003200e0818000f181800018c0b30068
:1023cc0002002000031f240083f907000000e00036
:1023dc00010035000044eb000804e0000e00320060
:1023ec00c0818000d181800018c0b30002002000a1
:1023fc00031f240078f907000000e00001003500fd
:10240c000044eb000804e00003003200200120002f
:10241c0080808800390037006081800071818000e5
:10242c0018c0b30002002000032224006cf907003e
:10243c000000e00001003d000044eb000804e00057
:10244c002e003200a0818000b181800018c0b30042
:10245c00020020008324240061f907000000e00042
:10246c0001003d000044eb000804e00023003200b2
:10247c00808180009181800018c0b3000200200090
:10248c000322240056f907000000e00001003d0083
:10249c000044eb000804e00018003200e0818000ea
:1024ac00f181800018c0b30002002000031f24003b
:1024bc004bf907000000e00001003d000044eb0078
:1024cc000804e0000d003200c0818000d181800042
:1024dc0018c0b30002002000031f240040f90700bd
:1024ec000000e00001003d000044eb000804e000a7
:1024fc0002003200500120008080880064eea800a9
:10250c0020c0b30012f0b70012d0bf008080fb00d7
:10251c000cd0bf000080fb000000e900808f500051
:10252c000200320012d0bf000cf0b7004f0478004c
:10253c000080fa00000006000000fa0013e1a90078
:10254c0011e1a9001061a8001021a90081088000e8
:10255c00f0fc2f0000806000800888000a21ef004a
:10256c000621ef00202620007008880000a025001e
:10257c00600888002142800080ff2f0000806000ee
:10258c000000a000204288000108a9002108a80032
:10259c0011e1a8000080fa00000006000400fa0017
:1025ac00881f7800008fbe0021088000f0fc2f00ef
:1025bc0000806000200888001e0178009e019000b9
:1025cc000068290081c12400c1f8070018c0b300bd
:1025dc0002f02f00f377240001f907000000e0005f
:1025ec0001003c000044eb000804e0005400320001
:1025fc0021088000f0fc2f00008060000040a0004b
:10260c00200888001e0178009e01900000682900b7
:10261c0081c12400aef80700020020000310240042
:10262c00abf8070018c0b30002f02f00f3772400ba
:10263c00ebf807000000e00001003c000044eb0058
:10264c000804e0003200320021088000f0fc2f006a
:10265c00008060000050a000200888001e01780057
:10266c009e0190000068290081c1240098f80700a1
:10267c00020020000328240095f8070018c0b300be
:10268c0002f02f00f3772400d5f807000000e000db
:10269c0001003c000044eb000804e0001000320094
:1026ac002108800000032000010070002008880031
:1026bc001e0178009e0190000068290081c1240051
:1026cc0083f80700020020000338240080f807007c
:1026dc00c5f80700000078001008880020003700bb
:1026ec001e0178009e0190000068290081c1240021
:1026fc0077f80700020020000328240074f8070074
:10270c00b9f80700000078001008880014003700a2
:10271c001e0178009e0190000068290081c12400f0
:10272c006bf80700020020000310240068f8070073
:10273c00adf807000000780010088800080037008a
:10274c001e0178009e0190000068290081c12400c0
:10275c005ff80700a4f80700000078001008880054
:10276c004f0478000080fa00000006000400fa0014
:10277c00008fbe0005e1a9000421a9000068a90092
:10278c002068a80005e1a8001e0078009e009000bb
:10279c0082ff07000080fa00000006000400fa0027
:1027ac00881f7800008fbe00f1088000f0fc2f001d
:1027bc0000806000f00888001e0178009e019000e7
:1027cc000068290081c1240041f8070018c0b3003b
:1027dc0002f02f00f377240081f807000000e000de
:1027ec0001003c000044eb000804e00054003200ff
:1027fc00f1088000f0fc2f00008060000040a00079
:10280c00f00888001e0178009e01900000682900e5
:10281c0081c124002ef807000200200003102400c0
:10282c002bf8070018c0b30002f02f00f377240038
:10283c006bf807000000e00001003c000044eb00d6
:10284c000804e00032003200f1088000f0fc2f0098
:10285c00008060000050a000f00888001e01780085
:10286c009e0190000068290081c1240018f807001f
:10287c00020020000328240015f8070018c0b3003c
:10288c0002f02f00f377240055f807000000e00059
:10289c0001003c000044eb000804e0001000320092
:1028ac00f10880000003200001007000f00888008f
:1028bc001e0178009e0190000068290081c124004f
:1028cc0003f80700020020000338240000f807007a
:1028dc0045f8070000007800100888002000370039
:1028ec001e0178009e0190000068290081c124001f
:1028fc00f7f707000200200003282400f4f7070074
:10290c0039f8070000007800100888001400370020
:10291c001e0178009e0190000068290081c12400ee
:10292c00ebf707000200200003102400e8f7070073
:10293c002df8070000007800100888000800370008
:10294c001e0178009e0190000068290081c12400be
:10295c00dff7070024f80700000078001008880053
:10296c004f0478000080fa00000006000400fa0012
:10297c00008fbe001fe1a9001e21a9000368a90059
:10298c002368a8001fe1a8001e0078009e0090009c
:10299c0082ff07000080fa00000006000000fa0029
:1029ac001160800080ff2f000080600010608800a4
:1029bc0000fa20002060880023aca800238ca8001b
:1029cc0011618000f03f2f000080600000a0a0008b
:1029dc00106188003000200020618800c3aca80082
:1029ec00c38ca80011668000f03f2f0000806000af
:1029fc0000a0a0001066880030002000206688002f
:102a0c0001eca8000080fa00000006000000fa00ab
:102a1c00889fbe008a9fbe00448180005581800043
:102a2c00208180003181800018c0b3000001be00fd
:102a3c000400be00e8f707000000e00001003500cc
:102a4c000044eb000804e0000f00320028818000f5
:102a5c00398180004a8180005b81800018d0bf00e2
:102a6c000080fb00cf80de001bf807000001be00d9
:102a7c000a00be0039f707000801be00d0000700ad
:102a8c0040818800518188004481800055818000fc
:102a9c00208180003181800018c0b3000001be008d
:102aac000400be00cef707000000e00001003c006f
:102abc000044eb000804e0000f0032002881800085
:102acc00398180004a8180005b81800018d0bf0072
:102adc000080fb00cf80de00fff707000001be0086
:102aec000a00be001cf707000801be009c0007008e
:102afc004081880051818800408180005181800094
:102b0c0018c0b3006011b800b5f707000000e00072
:102b1c0001003c000044eb000804e000040032001b
:102b2c00c3cca90024eea800c3eca8000300370016
:102b3c00c3eca90024cea800c3cca800408180001f
:102b4c005181800070000700020020000322240045
:102b5c0039f80700c5f707000000780030668800d8
:102b6c000481800015818000e0808000f18080006d
:102b7c0018c0b3000001be000400be0096f70700a9
:102b8c000000e000010035000044eb000804e00008
:102b9c000f003200e8808000f98080000a818000fc
:102bac001b81800018d0bf000080fb00cf80de00ae
:102bbc00c9f707000001be000a00be00e7f60700d7
:102bcc000801be007e00070000818800118188008a
:102bdc000481800015818000e0808000f1808000fd
:102bec0018c0b3000001be000400be007cf7070053
:102bfc000000e00001003c000044eb000804e00091
:102c0c000f003200e8808000f98080000a8180008b
:102c1c001b81800018d0bf000080fb00cf80de003d
:102c2c00adf707000001be000a00be00caf607009f
:102c3c000801be004a00070000818800118188004d
:102c4c00008180001181800018c0b3006011b800b1
:102c5c0063f707000000e00001003c000044eb00bb
:102c6c000804e0000400320023cca90015eea800f3
:102c7c0023eca8000300370023eca90015cea80014
:102c8c0023cca80000818000118180001e00070069
:102c9c000200200003222400e7f7070073f7070067
:102cac0000007800306188004f05be004f04be0064
:102cbc000080fa00000006000600fa00008fbe003b
:102ccc00424798004e409000e14f500004003a00fb
:102cdc001e0178009e019000e2808800f38088003d
:102cec004e4090000004e00005003a001e00780001
:102cfc009e00900001f0a2002081880031818800a4
:102d0c000080fa00000006000400fa00881f78001a
:102d1c00008fbe0018c0b3006011b8001e00780010
:102d2c009e0090002ef707000000e00001003d001f
:102d3c000044eb000804e000030032001e007800a1
:102d4c009e009000030037001e0078009e0090004b
:102d5c0001f0a2004f0478000080fa000000060089
:102d6c000800fa00881f7800008fbe002207980028
:102d7c003307980018c0b3002e019000be019000dc
:102d8c001e0078009e00900015f707000000e00080
:102d9c0001003c000044eb000804e000030032009a
:102dac001e0078009e009000020037002e0090005c
:102dbc00be0090004f0478000080fa00000006006e
:102dcc000800fa00881f7800008fbe0022079800c8
:102ddc003307980018c0b3002e019000be0190007c
:102dec001e0078009e009000fbf607000000e0003b
:102dfc00010035000044eb000804e0000300320041
:102e0c001e0078009e009000020037002e009000fb
:102e1c00be0090004f0478000080fa00000006000d
:102e2c000c00fa00881f7800008fbe002207980063
:102e3c0033079800440798005507980018c0b30052
:102e4c004e019000de0190001e0078009e00900064
:102e5c00e3f607000000e00001003c000044eb003a
:102e6c000804e000040032004e019000de019000e6
:102e7c00028fbe000e00370018c0b3002e01900068
:102e8c00be0190001e0078009e009000d2f6070054
:102e9c000000e000010035000044eb000804e000f5
:102eac00030032002e019000be019000028fbe0084
:102ebc001e0078009e0090004f0478000080fa00fd
:102ecc00000006000400fa00008fbe00b2fd2000d6
:102edc00930424001e0078009e0090007cf60700ee
:102eec00020020004333240053f707000080fa004f
:102efc00000006000400fa00008fbe00b2fd2000a6
:102f0c00930424001e0078009e0090004af70700ee
:102f1c0002002000433324006df607000080fa0005
:102f2c00000006000000fa0021e3a8002143a800dd
:102f3c0001198000f0cf2f0000806000001988007c
:102f4c002043a90001198000000e20000100700030
:102f5c000019880011198000f0ff2100008060002a
:102f6c00101988002343a80011198000f0cf2f00fe
:102f7c0000806000101988001119800030f82f00b3
:102f8c00008060000040a000101988002203a900f6
:102f9c002223a90025e3a900f0c0b30024e3b70065
:102fac0021198000f00f2e008080600000f02000be
:102fbc0001007000201988003303a9002e0ea80010
:102fcc002f6ea8006f2ea8001e2ea8004feea80092
:102fdc003063a80030c3a8003163a80031e3a80017
:102fec002e03a8004119800000fc2f000080600017
:102ffc004019880028e3a90001a8a90021a8a8006d
:10300c0021e3a8000080fa00000006000000fa008e
:10301c002023a8000080fa00000006000000fa003f
:10302c00200021000080fa00000006000000fa00d9
:10303c000ad0bf000080fa00000006000000fa0071
:10304c000a70ef000080fa00000006000000fa0091
:10305c002002a9000111800090ff2f000080600069
:10306c000011880020a2a9002062a80050052000b1
:10307c004011880023a2a90023e2a9000188a9001d
:10308c002188a90011118000f0f32f00008060004e
:10309c000060a000101188000168a9002168a80038
:1030ac0021e2a8002342a8000080fa0000000600dc
:1030bc000600fa0010079800210798000040eb006a
:1030cc00004f78000040eb00004f78000e003700f6
:1030dc000000000011118000002020000080600022
:1030ec000000e000fbff3a001e009000104078004a
:1030fc000080fb00201188001e0090000000e800fa
:10310c00100798001e4fe8009e80fb002e009000d8
:10311c00808f5000eeff35000080fa0000000600a2
:10312c000000fa00f0032000303a8800213a8000b9
:10313c00f0f32f0000806000203a8800213a8000d4
:10314c0000fe2f00008060000000a000203a8800e4
:10315c001200200080072000a109200033742000f9
:10316c00804978008149780082497800103a8000c3
:10317c00000178000200a00060042000710520000e
:10318c0023742000804978008149780082497800b6
:10319c0000000000113a80000000270080806000d1
:1031ac0000002100808f5000faff3a000000000060
:1031bc00113a800000022000008060000000e00056
:1031cc00fbff32000080fa00000006000000fa004d
:1031dc000e2eef001e2eef002e2eef003e2eef00d7
:1031ec004e2eef005e2eef006e2eef00214ea9004a
:1031fc0060cea90060eea90011cea90011eea900c5
:10320c0020cea90020eea9002136800000f82f0066
:10321c00008060008001b3002036880011348000eb
:10322c0000fc2f00008060000000a000103488001b
:08323c000080fa00000006000a
:020000040000fa
:103244000c100000080000008000000014100000b2
:1032540004000000800000001a1000002600000096
:10326400800000001810000002000000820000002e
:1032740008000000001000000c00000080000000a6
:043284000000000046
:020000040000fa
:10328800f03fb1000180b10006003500ee030900ef
:1032980000000000403fb1000180b100fbff3d008d
:1032a8001000b000203fb000020035000080090087
:0832b800000000000000060008
:020000040000fa
:02000004000af0
:04afe000cfff00009f
:020000040000fa
:02000004000af0
:04afe400ffff00006b
:020000040000fa
:02000004000af0
:04afe8007fff0000e7
:020000040000fa
:02000004000af0
:04afec005fff000003
:020000040000fa
:02000004000af0
:04aff00038ff000026
:020000040000fa
:02000004000af0
:04aff400ffff00005b
:00000001FF
