:020000040000fa
:080000000002040000000000f2
:020000040000fa
:040008007a03000077
:020000040000fa
:04000c007a03000073
:020000040000fa
:040010007a0300006f
:020000040000fa
:040014007a0300006b
:020000040000fa
:040018007a03000067
:020000040000fa
:04001c007a03000063
:020000040000fa
:040020007a0300005f
:020000040000fa
:040024007a0300005b
:020000040000fa
:040028007a03000057
:020000040000fa
:04002c007a03000053
:020000040000fa
:040030007a0300004f
:020000040000fa
:0400340002030000c3
:020000040000fa
:040038007a03000047
:020000040000fa
:04003c007a03000043
:020000040000fa
:040040007a0300003f
:020000040000fa
:040044007a0300003b
:020000040000fa
:04004800fa020000b8
:020000040000fa
:04004c007a03000033
:020000040000fa
:040050007a0300002f
:020000040000fa
:040054007a0300002b
:020000040000fa
:040058007a03000027
:020000040000fa
:04005c004c03000051
:020000040000fa
:040060007a0300001f
:020000040000fa
:040064007a0300001b
:020000040000fa
:040068007a03000017
:020000040000fa
:04006c007a03000013
:020000040000fa
:040070007a0300000f
:020000040000fa
:040074007a0300000b
:020000040000fa
:040078007a03000007
:020000040000fa
:04007c007a03000003
:020000040000fa
:040080007a030000ff
:020000040000fa
:040084007a030000fb
:020000040000fa
:040088007a030000f7
:020000040000fa
:04008c007a030000f3
:020000040000fa
:040090007a030000ef
:020000040000fa
:040094002203000043
:020000040000fa
:040098007a030000e7
:020000040000fa
:04009c007a030000e3
:020000040000fa
:0400a0007a030000df
:020000040000fa
:0400a4007a030000db
:020000040000fa
:0400a8007a030000d7
:020000040000fa
:0400ac007a030000d3
:020000040000fa
:0400b0007a030000cf
:020000040000fa
:0400b4007a030000cb
:020000040000fa
:0400b8007a030000c7
:020000040000fa
:0400bc007a030000c3
:020000040000fa
:0400c0007a030000bf
:020000040000fa
:0400c4007a030000bb
:020000040000fa
:0400c8007a030000b7
:020000040000fa
:0400cc007a030000b3
:020000040000fa
:0400d0007a030000af
:020000040000fa
:0400d4007a030000ab
:020000040000fa
:0400d8007a030000a7
:020000040000fa
:0400dc007a030000a3
:020000040000fa
:0400e0007a0300009f
:020000040000fa
:0400e4007a0300009b
:020000040000fa
:0400e8007a03000097
:020000040000fa
:0400ec007a03000093
:020000040000fa
:0400f0007a0300008f
:020000040000fa
:0400f4007a0300008b
:020000040000fa
:0400f8007a03000087
:020000040000fa
:0400fc007a03000083
:020000040000fa
:040100007a0300007e
:020000040000fa
:040104007a0300007a
:020000040000fa
:040108007a03000076
:020000040000fa
:04010c007a03000072
:020000040000fa
:040110007a0300006e
:020000040000fa
:040114007a0300006a
:020000040000fa
:040118007a03000066
:020000040000fa
:04011c007a03000062
:020000040000fa
:040120007a0300005e
:020000040000fa
:040124007a0300005a
:020000040000fa
:040128007a03000056
:020000040000fa
:04012c007a03000052
:020000040000fa
:040130007a0300004e
:020000040000fa
:040134007a0300004a
:020000040000fa
:040138007a03000046
:020000040000fa
:04013c007a03000042
:020000040000fa
:040140007a0300003e
:020000040000fa
:040144007a0300003a
:020000040000fa
:040148007a03000036
:020000040000fa
:04014c007a03000032
:020000040000fa
:040150007a0300002e
:020000040000fa
:040154007a0300002a
:020000040000fa
:040158007a03000026
:020000040000fa
:04015c007a03000022
:020000040000fa
:040160007a0300001e
:020000040000fa
:040164007a0300001a
:020000040000fa
:040168007a03000016
:020000040000fa
:04016c007a03000012
:020000040000fa
:040170007a0300000e
:020000040000fa
:040174007a0300000a
:020000040000fa
:040178007a03000006
:020000040000fa
:04017c007a03000002
:020000040000fa
:040180007a030000fe
:020000040000fa
:040184007a030000fa
:020000040000fa
:040188007a030000f6
:020000040000fa
:04018c007a030000f2
:020000040000fa
:040190007a030000ee
:020000040000fa
:040194007a030000ea
:020000040000fa
:040198007a030000e6
:020000040000fa
:04019c007a030000e2
:020000040000fa
:0401a0007a030000de
:020000040000fa
:0401a4007a030000da
:020000040000fa
:0401a8007a030000d6
:020000040000fa
:0401ac007a030000d2
:020000040000fa
:0401b0007a030000ce
:020000040000fa
:0401b4007a030000ca
:020000040000fa
:0401b8007a030000c6
:020000040000fa
:0401bc007a030000c2
:020000040000fa
:0401c0007a030000be
:020000040000fa
:0401c4007a030000ba
:020000040000fa
:0401c8007a030000b6
:020000040000fa
:0401cc007a030000b2
:020000040000fa
:0401d0007a030000ae
:020000040000fa
:0401d4007a030000aa
:020000040000fa
:0401d8007a030000a6
:020000040000fa
:0401dc007a030000a2
:020000040000fa
:0401e0007a0300009e
:020000040000fa
:0401e4007a0300009a
:020000040000fa
:0401e8007a03000096
:020000040000fa
:0401ec007a03000092
:020000040000fa
:0401f0007a0300008e
:020000040000fa
:0401f4007a0300008a
:020000040000fa
:0401f8007a03000086
:020000040000fa
:0401fc007a03000082
:020000040000fa
:040200007a0300007d
:020000040000fa
:040204007a03000079
:020000040000fa
:040208007a03000075
:020000040000fa
:04020c007a03000071
:020000040000fa
:040210007a0300006d
:020000040000fa
:040214007a03000069
:020000040000fa
:040218007a03000065
:020000040000fa
:04021c007a03000061
:020000040000fa
:040220007a0300005d
:020000040000fa
:040224007a03000059
:020000040000fa
:040228007a03000055
:020000040000fa
:04022c007a03000051
:020000040000fa
:040230007a0300004d
:020000040000fa
:040234007a03000049
:020000040000fa
:040238007a03000045
:020000040000fa
:04023c007a03000041
:020000040000fa
:040240007a0300003d
:020000040000fa
:040244007a03000039
:020000040000fa
:040248007a03000035
:020000040000fa
:04024c007a03000031
:020000040000fa
:040250007a0300002d
:020000040000fa
:040254007a03000029
:020000040000fa
:040258007a03000025
:020000040000fa
:04025c007a03000021
:020000040000fa
:040260007a0300001d
:020000040000fa
:040264007a03000019
:020000040000fa
:040268007a03000015
:020000040000fa
:04026c007a03000011
:020000040000fa
:040270007a0300000d
:020000040000fa
:040274007a03000009
:020000040000fa
:040278007a03000005
:020000040000fa
:04027c007a03000001
:020000040000fa
:040280007a030000fd
:020000040000fa
:100400000f0421000eff2c000e01880000000000e8
:10041000000020000000e000020032000001200087
:100420002002880014000700b40007000000e0006c
:1004300003003a008078210001002000020037000c
:100440000000200001002000810f70000100320038
:100450000f000700000020000000e0000200320052
:1004600000000200000000000c0702000000000075
:100470000040da000000fe00200020000000e00044
:1004800002003200100020009001880000000600e9
:10049000a1028800800478000000eb001f003700f4
:1004a000e284440054a0b4009905ba00e2844400f8
:1004b00054a0b4009906ba00e284440054a0b400e9
:1004c0000006eb00476fde00fd07b200ae018800ba
:1004d000636ce10003003a000ad801000000eb0061
:1004e0000e003700606ce10008003a00004deb00a0
:1004f0000a05e800020039003420ec000af0a000f0
:100500008b05e900f9ff3e00040037006168e10057
:10051000010032000086eb000b00070019c7ba008b
:100520000e04e0001905ba0003003a000a00e000da
:10053000dbff3a0000000600fe07b200ae028800b2
:100540008a047800f5ff37000cd0a300e20f4d00bd
:100550001c00390089027800354dba000a05e80010
:10056000020039003420ec000af0a0008b05e900fd
:100570000f003200254dba000a05e80002003900dc
:100580003420ec000af0a0008b05e90008003200de
:100590000c00e0000600320015cdba000a05e800a4
:1005a000020039003420ec000af0a0008b05e900bd
:1005b0008984e80054a0b4000b00e000e2ff3a0098
:1005c000000006009902ba00055d78008b05e9007d
:1005d000f7ff3200c82ade00055d78008b05e900d0
:1005e000f3ff32000c00e000f1ff320019ddba0029
:1005f000eeff37000000fa000108a9000080fa00b1
:10060000004006003600f800809fbe00829fbe00ba
:10061000849fbe00869fbe000000fa000068a9000b
:100620006f080700ee0907000080fa004f03be00c4
:100630004f02be004f01be004f00be003600f90061
:10064000004006003600f800809fbe00829fbe007a
:10065000849fbe00869fbe000000fa000368a900c8
:10066000a0808000b180800061004000e0804800f0
:10067000a0808800b1808800b30207000080fa00e3
:100680004f03be004f02be004f01be004f00be0030
:100690003600f90000400600809fbe000000fa000e
:1006a00001a8a9000118800020002100010878009d
:1006b00011188000200021001100980021188000ee
:1006c0002000210021009800311880002000210026
:1006d000310098004118800020002100410098005e
:1006e00010c0b3000af0b7000080fa004f00be004f
:1006f000004006000040da000000fe000000050097
:1007000003f0a200889fbe008a9fbe008c1f780065
:100710001b010700220133006450e1004f0032004a
:100720006420e1005200320003826c0007003b00ad
:100730000905d0000306d000820f54000c065d00ae
:1007400002003900020032008901780003067800b7
:100750008582550004003d000003fd008103fd007b
:100760008502ea008b854200840f720002003b0084
:1007700060001000e08018006011b8000005eb0078
:100780007a28e1000a00390006007800c75ddd0024
:10079000f707b200878075002d0037008281710055
:1007a0000a017800610560008180d1000080d300db
:1007b0008502e900f9ff3b000604400087844800f9
:1007c00002003b0060041400e0841c000988a300c0
:1007d000070032008a81710082817100610164002a
:1007e0008904d1000884d3008b05e8001700370086
:1007f0000978a30013003a000b00e0001300340056
:100800008b05e9000804440089844c000a44740004
:100810000978a3000d003a000b00e0000700340047
:100820008b05e9000804440089844c0001003a006b
:100830000b0020000978a300f7ff32000001eb0055
:1008400002003700828171000a01780091000700e0
:100850000cf0a70001f0a000da0037006420e100ee
:1008600002003a00838f6c00da0033000801be00fa
:100870000200be00d3003700889fbe008a9fbe00e2
:100880008c1f7800be000700c500330003866c0093
:100890006450e1002e0032006420e1003300320099
:1008a0006150e1002f0032006120e1003100320090
:1008b00085855500eb07b0000900200008042000e2
:1008c000050037000804440089844c000a00310008
:1008d0000603430087834b000001530081815b00c6
:1008e000f8ff33000203be000800a0000804440023
:1008f00089844c00f6ff3900c639dd00830173009e
:1009000001003200130020008904d1000884d300c4
:100910000998a300050032000800a7000300a0000a
:100920008904d1000884d3008b05e8008904d10034
:100930000884d3000001eb000281d20055000700bb
:1009400001f0a1000cf0a70001f0a0009d0037000d
:100950006420e1009f0032000801be000200be00da
:10096000f7ff37006120e1009a0032006000b80014
:10097000f3ff37000000200001f82700f0ff3700e8
:1009800014002000ca003700f4ff2f00c800370011
:100990000001be00650007000470a70003f0a1007d
:1009a0006509b100160032000d0035006828e1002d
:1009b00006003500f0ff2f00f1ff27000300e000e4
:1009c00013003b000100280000000500000040006b
:1009d000818048008502e900fcff3a0008003700ea
:1009e000f88f420002003c008000eb000000050090
:1009f0008100d1000080d3008502e800fcff3a00ae
:100a00000300e00002003b0060001000e0801800de
:100a1000000006000001be00440007000470a700ab
:100a200003f0a10003f8a30013003a006509b10028
:100a300010003200090035006928e100020035008d
:100a400001002800000005000000400081804800ef
:100a50008502e900fcff3a0000000600f88f420022
:100a6000050035008100d1000080d3008502e80038
:100a7000fcff3a00000006008000eb0000000500cb
:100a80004f89de0082017800a40037006011b800b1
:100a9000b200370081002000618055000b003d004e
:100aa0000b00200061fe2f000100e1001d0034005a
:100ab00082817100610164008904d1000884d3003f
:100ac0000000e800faff3a007100200061006400b5
:100ad000030070000200600009003200610444005d
:100ae000e0844c000988a500050032008b05e80071
:100af0006808e10002003a008904d1000884d300ac
:100b0000f20f20000258e10005003d00c75ddd0046
:100b1000f907b2008980750008007800000006001f
:100b20000bf827008b00780000000500c70ade00e4
:100b3000f107b200f50fb20008003200e1cf420029
:100b4000020032000170a00024000500810f700037
:100b5000010032000408050044000500810f700008
:100b600002003a00140005008502e9000000400080
:100b700081c04800fcff3b000170a000240005007c
:100b80000004be00e9ff07000003be000405be002c
:100b90000200be00e5ff0700844f7500000006005c
:100ba0000200be006450e100050036006420e10050
:100bb000020036000968a30001003a000800be00e8
:100bc0000160a0004f0678004f05be004f04be0034
:100bd00000000600f0ff2f00f1ff2700f9ff3700ab
:100be000889fbe008a9fbe008c1f7800e4ff07002c
:100bf000ebff330003866c006450e10024003200f8
:100c00006420e100270032006150e1002200320040
:100c10006120e100210032008b854200eb07b1002a
:100c20000134b800003ab8000804420089844a0040
:100c3000013ab8000030b8008880400009014a003d
:100c40000400330000004000818048000201490098
:100c50008b05e900c909dd00830170000100320045
:100c600013002000c814de004814dd004709de0030
:100c70001200b200c808de000884700085ff07007b
:100c800001f0a1000cf0a70001f0a000cdff37009b
:100c90006120e100cfff32000801be000200be006b
:100ca000f7ff37006150e100fcff3a00c9ff370051
:100cb000889fbe008a9fbe00841f7800b0ff070097
:100cc0004f00780011003300f0ff2f00838f6c007d
:100cd00006003b00040565000a00a7000800370075
:100ce00009f0a6001000200008003700820f540011
:100cf000838f5c00030039001000200001003e00db
:100d00000000200009f0a7000000ea004f05be0027
:100d10004f04be000000e00000000600881f7800bd
:100d2000030478000300e00007003d0060001000ad
:100d3000e080180060011900e081190002003b000a
:100d400001f02d00030037000400070008f0a700a1
:100d500001f0a0004f04780000000600889fbe004c
:100d60008a9fbe000082700004027100048271003c
:100d7000260032000004be000200be006011b80070
:100d80006b092000950220000182cf000a00390083
:100d90000541b1000082cf00070039000541b100d4
:100da0000982cf00040039000541b1000882cf005c
:100db000010039000541b100054252001200320025
:100dc0000a003b0082817100610164008100d10052
:100dd0000080d3008984d3000884d3008b05e80009
:100de0000442e800f7ff3a00070037000804440017
:100df00089844c0000004800818048008b05e90090
:100e00000442e900f9ff3a0022ff07004f05be0047
:080e10004f04be0000000600c3
:020000040000fa
:100e18000800fa00881f7800ff0707002908070064
:100e280064cea80064eea800254ea80000002000ab
:100e380061312400c00507003205070000002000ca
:100e4800a14724003c06070047060700a80707003b
:100e58006000b80000818800118188006000b80037
:100e68004081880051818800df070700000f780063
:100e7800e1070700e14f500086003a00e20707004b
:100e8800d9070700000f7800d70707001007980058
:100e98001e0090000080e800100078008000eb0041
:100ea800f8fe070032332300330524004aff070009
:100eb80002002000035824006dfe0700d2cc2c004d
:100ec800c304240044ff0700200798003107980056
:100ed8002e019000be019000000020008120240017
:100ee80063fe070002002000030a240002fe070038
:100ef80060818800718188001e00900064004000b5
:100f0800100078008000eb00defe0700323323007b
:100f18003305240030ff0700020020000358240096
:100f280053fe0700d2cc2c00c30424002aff07007c
:100f380020079800310798002e019000be0190000c
:100f4800000020008120240049fe07000200200044
:100f5800030a2400e8fd0700a0818800b181880009
:100f68001e00900068004000100078008000eb0030
:100f7800c4fe0700323323003305240016ff0700a0
:100f8800020020000358240039fe0700d2cc2c00b0
:100f9800c304240010ff07002007980031079800b9
:100fa8002e019000be019000000020008120240046
:100fb8002ffe070002002000030a2400cefd0700d0
:100fc80080818800918188001e00900066004000a2
:100fd800100078008000eb00aafe070032332300df
:100fe80033052400fcfe07000200200003582400fb
:100ff8001ffe0700d2cc2c00c3042400f6fe070015
:1010080020079800310798002e019000be0190003b
:10101800000020008120240015fe070002002000a7
:10102800030a2400b4fd0700e0818800f1818800ec
:101038001e009000100078008000eb0091fe070071
:101048003233230033052400e3fe070002002000aa
:101058000358240006fe0700d2cc2c00c304240049
:10106800ddfe070020079800310798002e01900048
:10107800be0190000000200081202400fcfd070034
:1010880002002000030a24009bfd0700c08188009d
:10109800d1818800e0818000f181800018c0b30010
:1010a80002002000031f240033fe07000000e000b8
:1010b800010035000044eb000804e00002003200a3
:1010c800254ea80001003700254ea900c0818000e8
:1010d800d181800018c0b30002002000031f240043
:1010e80025fe07000000e000010035000044eb0089
:1010f8000804e0000200320064cea80001003700b6
:1011080064cea900a0818000b181800018c0b3001e
:1011180002002000031f240017fe07000000e00063
:10112800010035000044eb000804e0000200320032
:1011380064eea8004eff370064eea9004cff3700ac
:101148000000fa000cd0bf000080fb00cf80de005a
:101158005201200003002000820f5000838f5800a6
:1011680094003e0000060100150037001e003700fd
:101178003300370042003700250037002e003700c3
:101188005900370062003700630037006d003700f0
:101198006e0037007800370086003700850037007a
:1011a80084003700830037003700370040003700dd
:1011b800410037004a003700710037007b003700d4
:1011c8001430ef001630ef000041eb006000b8006b
:1011d8002c06070012c0b3006000b80029060700fb
:1011e80010c0b3000cf0b700a2808000b38080006c
:1011f800803e200001002000800f5100818f59009f
:101208006f00360020c0b3000cf0b7006d00370047
:101218000041eb0000002000011724001906070018
:1012280012c0b3006000b8001606070050c0b30033
:101238000cf0b70063003700640007006100370056
:10124800708080000000e800708088008080800046
:101258008000eb000bfe07000041eb0009060700c9
:10126800808080008000eb0006fe070012c0b300fb
:101278000406070030c0b3000cf0b7005100370077
:10128800520007004f0037000041eb00000020002b
:1012980001172400fb05070012c0b3006000b80066
:1012a800f805070010c1b3000cf0b700450037007f
:1012b80046000700430037000041eb006000b8001b
:1012c800f005070012c0b300000020000117240039
:1012d800ec05070030c1b3000cf0b7003900370047
:1012e8003a000700370037000041eb006000b80003
:1012f800e405070012c0b300000020000117240015
:10130800e005070070c0b3000cf0b7002d003700ef
:101318002e0007002b0037000041eb0000002000e2
:1013280001142400d705070012c0b30000002000f4
:1013380001142c00d305070090c0b3000cf0b700cf
:1013480020003700210007001e0037000041eb0095
:101358000000200001142c00ca05070012c0b300c9
:101368000000200001142400c6050700b0c0b30027
:101378000cf0b70013003700140007001100370005
:101388000041eb000000200001142400bd05070007
:1013980012c0b3000000200001142400b9050700a2
:1013a80050c1b3000cf0b700060037000700070073
:1013b800040037000c70ef00000000000100370047
:1013c800000000000080fa00000006000200fa0099
:1013d800881f78000040eb00004f78006081800093
:1013e8007181800018c0b30002002000831c240013
:1013f80063fd07000000e00001003c000044eb0032
:101408000804e0002c003200a0818000b181800037
:1014180018c0b30002002000031f240056fd070077
:101428000000e000010035000044eb000804e00083
:1014380021003200808180009181800018c0b300b3
:1014480002002000831c24004dfd07000000e0007e
:1014580001003c000044eb000804e00016003200e4
:10146800e0818000f181800018c0b30002002000f4
:101478000317240042fd07000000e00001003c00c3
:101488000044eb000804e0000b003200c08180003b
:10149800d181800018c0b300020020000317240087
:1014a80037fd07000000e00001003c000044eb00ad
:1014b8000804e00042003a006081800071818000e9
:1014c80018c0b30002002000831c24002afd070076
:1014d8000000e000010035000044eb000804e000d3
:1014e80016003200a0818000b181800018c0b300ce
:1014f80002002000031f240021fd07000000e00077
:1015080001003c000044eb000804e0000b0032003e
:10151800808180009181800018c0b3000200200003
:10152800831c240014fd07000000e00001003500c2
:101538000044eb000804e00021003a0060818000cc
:101548007181800018c0b30002002000831c2400b1
:1015580009fd07000000e000010035000044eb0031
:101568000804e00019003200a0818000b1818000e9
:1015780018c0b30002002000031f2400fefc07006f
:101588000000e000010035000044eb000804e00022
:101598000e003200808180009181800018c0b30065
:1015a80002002000831c2400f3fc07000000e00078
:1015b800010035000044eb000804e000030032009d
:1015c80030c0b300004f78004d02370060818000c2
:1015d8007181800018c0b30002002000831c240021
:1015e800e7fc07000000e00001003c000044eb00bd
:1015f8000804e00021003200a0818000b181800051
:1016080018c0b30002002000031f2400dcfc070000
:101618000000e00001003c000044eb000804e0008a
:1016280016003200808180009181800018c0b300cc
:1016380002002000831c2400cffc07000000e0000b
:10164800010035000044eb000804e0000b00320004
:10165800c0818000d181800018c0b3000200200042
:1016680003172400c6fc07000000e00001003c004e
:101678000044eb000804e00063003a006081800049
:101688007181800018c0b30002002000831c240070
:10169800bbfc07000000e00001003c000044eb0038
:1016a8000804e0002c003200a0818000b181800095
:1016b80018c0b30002002000031f2400aefc07007e
:1016c8000000e000010035000044eb000804e000e1
:1016d80021003200808180009181800018c0b30011
:1016e80002002000831c2400a3fc07000000e00087
:1016f800010035000044eb000804e0001600320049
:10170800e0818000f181800018c0b3000200200051
:10171800031724009afc07000000e00001003c00c9
:101728000044eb000804e0000b003200c081800098
:10173800d181800018c0b3000200200003172400e4
:101748008ffc07000000e00001003c000044eb00b3
:101758000804e0002c003a0060818000718180005c
:1017680018c0b30002002000831c240084fc07007a
:101778000000e00001003c000044eb000804e00029
:1017880024003200a0818000b181800018c0b3001d
:1017980002002000031f240077fc07000000e0007f
:1017a800010035000044eb000804e0001900320095
:1017b800e0818000f181800018c0b30002002000a1
:1017c800031724006cfc07000000e000010035004e
:1017d8000044eb000804e0000e003200c0818000e5
:1017e800d181800018c0b300020020000317240034
:1017f80063fc07000000e00001003c000044eb002f
:101808000804e0000300320010c0b300004f780065
:10181800bb013700608180007181800018c0b3006f
:1018280002002000831c240053fc07000000e00095
:10183800010035000044eb000804e0002c003200f1
:10184800a0818000b181800018c0b3000200200090
:10185800031f24004afc07000000e00001003c00d0
:101868000044eb000804e000210032008081800081
:101878009181800018c0b30002002000831c24005e
:101888003ffc07000000e00001003c000044eb00c2
:101898000804e00016003200e0818000f181800039
:1018a80018c0b300020020000317240034fc07000e
:1018b8000000e00001003c000044eb000804e000e8
:1018c8000b003200c0818000d181800018c0b300b5
:1018d800020020000317240029fc07000000e00094
:1018e80001003c000044eb000804e0009a003a00c4
:1018f800608180007181800018c0b3000200200060
:10190800831c24001cfc07000000e00001003500d7
:101918000044eb000804e0002c003200a0818000a5
:10192800b181800018c0b30002002000031f24000a
:1019380013fc07000000e00001003c000044eb003d
:101948000804e0002100320080818000918180003d
:1019580018c0b30002002000831c240008fc070004
:101968000000e00001003c000044eb000804e00037
:1019780016003200e0818000f181800018c0b300b9
:101988000200200003172400fdfb07000000e00010
:1019980001003c000044eb000804e0000b003200aa
:1019a800c0818000d181800018c0b30002002000ef
:1019b80003172400f0fb07000000e00001003500d9
:1019c8000044eb000804e00063003a0060818000f6
:1019d8007181800018c0b30002002000831c24001d
:1019e800e5fb07000000e000010035000044eb00c3
:1019f8000804e0002c003200a0818000b181800042
:101a080018c0b30002002000031f2400dafb0700ff
:101a18000000e000010035000044eb000804e0008d
:101a280021003200808180009181800018c0b300bd
:101a380002002000831c2400d1fb07000000e00006
:101a480001003c000044eb000804e00016003200ee
:101a5800e0818000f181800018c0b30002002000fe
:101a680003172400c6fb07000000e00001003c004b
:101a78000044eb000804e0000b003200c081800045
:101a8800d181800018c0b300020020000317240091
:101a9800bbfb07000000e00001003c000044eb0035
:101aa8000804e0002c003a00a0818000b181800089
:101ab80018c0b30002002000031f2400aefb07007b
:101ac8000000e000010035000044eb000804e000dd
:101ad80024003200808180009181800018c0b3000a
:101ae80002002000831c2400a5fb07000000e00082
:101af80001003c000044eb000804e000190032003b
:101b0800e0818000f181800018c0b300020020004d
:101b1800031724009afb07000000e00001003c00c6
:101b28000044eb000804e0000e003200c081800091
:101b3800d181800018c0b3000200200003172400e0
:101b48008dfb07000000e000010035000044eb00b9
:101b58000804e0000300320020c0b300004f780002
:101b6800e7003700608180007181800018c0b300f1
:101b780002002000831c240081fb07000000e00015
:101b880001003c000044eb000804e0002f00320094
:101b9800a0818000b181800018c0b300020020003d
:101ba800031f240076fb07000000e00001003c0052
:101bb8000044eb000804e00024003200808180002b
:101bc8009181800018c0b30002002000831c24000b
:101bd8006bfb07000000e00001003c000044eb0044
:101be8000804e00019003200e0818000f1818000e3
:101bf80018c0b30002002000031724005efb070092
:101c08000000e000010035000044eb000804e0009b
:101c18000e003200c0818000d181800018c0b3005e
:101c2800020020000317240053fb07000000e00017
:101c3800010035000044eb000804e0000300320016
:101c4800a0c0b300004f7800ad003700608180006d
:101c58007181800018c0b30002002000831c24009a
:101c680047fb07000000e00001003c000044eb00d7
:101c78000804e0002f003200a0818000b1818000bc
:101c880018c0b30002002000031f24003cfb07001b
:101c98000000e00001003c000044eb000804e00004
:101ca80024003200808180009181800018c0b30038
:101cb80002002000831c240031fb07000000e00024
:101cc80001003c000044eb000804e0001900320069
:101cd800e0818000f181800018c0b300020020007c
:101ce8000317240024fb07000000e0000100350072
:101cf8000044eb000804e0000e003200c0818000c0
:101d0800d181800018c0b30002002000031724000e
:101d18001bfb07000000e00001003c000044eb0052
:101d28000804e0000300320090c0b300004f7800c0
:101d380073003700608180007181800018c0b30093
:101d480002002000831c24000dfb07000000e000b7
:101d580001003c000044eb000804e0002f003200c2
:101d6800a0818000b181800018c0b300020020006b
:101d7800031f240002fb07000000e00001003c00f4
:101d88000044eb000804e000240032008081800059
:101d98009181800018c0b30002002000831c240039
:101da800f7fa07000000e00001003c000044eb00e7
:101db8000804e00019003200e0818000f181800011
:101dc80018c0b3000200200003172400ecfa070033
:101dd8000000e00001003c000044eb000804e000c3
:101de8000e003200c0818000d181800018c0b3008d
:101df8000200200003172400dffa07000000e000bb
:101e0800010035000044eb000804e0000300320044
:101e180080c0b300004f780039003700608180002f
:101e28007181800018c0b30002002000831c2400c8
:101e3800d3fa07000000e00001003c000044eb007a
:101e48000804e0002e003200a0818000b1818000eb
:101e580018c0b30002002000031f2400c8fa0700be
:101e68000000e00001003c000044eb000804e00032
:101e780023003200808180009181800018c0b30067
:101e880002002000831c2400bdfa07000000e000c7
:101e980001003c000044eb000804e0001800320098
:101ea800e0818000f181800018c0b30002002000aa
:101eb80003172400b2fa07000000e00001003c000c
:101ec8000044eb000804e0000d003200c0818000ef
:101ed800d181800018c0b30002002000031724003d
:101ee800a7fa07000000e00001003c000044eb00f6
:101ef8000804e000020032000040eb00004f7800c8
:101f08001e407800e24f500003003a0040c0b30082
:101f180012f0b700ef0037001e407800e14f500084
:101f280003003a0060c0b30012f0b700e9003700c0
:101f38001e407800e34f50000a003a00708080008d
:101f4800610060000000e00003003a0080c0b300b8
:101f580012f0b700df003700a0c0b30012f0b700de
:101f6800dc0037001e407800e54f500003003a00bf
:101f7800a0c0b30012f0b700d60037001e407800aa
:101f8800e44f500003003a0080c0b30012f0b700dd
:101f9800d00037001e407800e64f500003003a009a
:101fa80060c0b30012f0b700ca0037001e407800c6
:101fb800e74f500003003a0040c0b30012f0b700ea
:101fc800c40037001e407800e84f500003003a0074
:101fd80000c1b30012f0b700be0037001e40780001
:101fe800e94f500003003a0020c1b30012f0b700d7
:101ff800b80037001e407800ea4f500003003a004e
:1020080040c1b30012f0b700b20037001e4078009c
:102018000004e000af003a00608180007181800018
:1020280018c0b30002002000c320240052fa0700a1
:102038000000e000010035000044eb000804e00067
:102048002f003200a0818000b181800018c0b30049
:10205800020020000322240047fa07000000e000e5
:10206800010035000044eb000804e00024003200c1
:10207800808180009181800018c0b3000200200098
:10208800c32024003cfa07000000e00001003500ee
:102098000044eb000804e00019003200e0818000f1
:1020a800f181800018c0b30002002000831c2400c6
:1020b80031fa07000000e000010035000044eb00a1
:1020c8000804e0000e003200c0818000d181800049
:1020d80018c0b30002002000831c240026fa070061
:1020e8000000e000010035000044eb000804e000b7
:1020f80003003200f0002000808088007300370061
:10210800608180007181800018c0b3000200200047
:102118008324240018fa07000000e00001003500bd
:102128000044eb000804e0002f003200a08180008a
:10213800b181800018c0b3000200200003272400ea
:102148000dfa07000000e000010035000044eb0034
:102158000804e00024003200808180009181800022
:1021680018c0b300020020008324240002fa0700ec
:102178000000e000010035000044eb000804e00026
:1021880019003200e0818000f181800018c0b3009e
:102198000200200003222400f7f907000000e000f5
:1021a800010035000044eb000804e0000e00320096
:1021b800c0818000d181800018c0b30002002000d7
:1021c80003222400ecf907000000e00001003500bc
:1021d8000044eb000804e000030032004001200046
:1021e800808088003900370060818000718180001c
:1021f80018c0b3000200200083242400e0f907007f
:102208000000e00001003d000044eb000804e0008d
:102218002e003200a0818000b181800018c0b30078
:102228000200200003272400d5f907000000e00081
:1022380001003d000044eb000804e00023003200e8
:10224800808180009181800018c0b30002002000c6
:1022580083242400caf907000000e00001003d00c3
:102268000044eb000804e00018003200e081800020
:10227800f181800018c0b30002002000032224006e
:10228800bff907000000e00001003d000044eb003a
:102298000804e0000d003200c0818000d181800078
:1022a80018c0b3000200200003222400b4f907007c
:1022b8000000e00001003d000044eb000804e000dd
:1022c80002003200900120008080880020c0b30006
:1022d80012f0b70012d0bf008080fb000cd0bf0006
:1022e8000080fb000000e900808f500002003200ef
:1022f80012d0bf000cf0b7004f0478000080fa003d
:10230800000006000000fa0013e1a90011e1a9008d
:102318001061a8001021a90081088000f0fc2f009e
:1023280000806000800888000a21ef000621ef0085
:10233800202620007008880000a02500600888007a
:102348002142800080ff2f00008060000000a00074
:10235800204288000108a9002108a80011e1a8006e
:102368000080fa00000006000400fa00881f7800c8
:10237800008fbe0021088000f0fc2f000080600064
:10238800200888001e0178009e019000006829003e
:1023980081c1240036f9070018c0b30002f02f00ed
:1023a800f377240076f907000000e00001003c0004
:1023b8000044eb000804e0005400320021088000cb
:1023c800f0fc2f00008060000040a000200888007a
:1023d8001e0178009e0190000068290081c1240038
:1023e80023f90700020020000310240020f9070049
:1023f80018c0b30002f02f00f377240060f907003b
:102408000000e00001003c000044eb000804e0008c
:102418003200320021088000f0fc2f0000806000ac
:102428000050a000200888001e0178009e0190003e
:102438000068290081c124000df90700020020006e
:10244800032824000af9070018c0b30002f02f007f
:10245800f37724004af907000000e00001003c007f
:102468000044eb000804e00010003200210880005e
:102478000003200001007000200888001e01780079
:102488009e0190000068290081c12400f8f8070027
:102498000200200003382400f5f807003af9070085
:1024a8000000780010088800200037001e0178001e
:1024b8009e0190000068290081c12400ecf8070003
:1024c8000200200003282400e9f807002ef907007d
:1024d8000000780010088800140037001e017800fa
:1024e8009e0190000068290081c12400e0f80700df
:1024f8000200200003102400ddf8070022f907007d
:102508000000780010088800080037001e017800d5
:102518009e0190000068290081c12400d4f80700ba
:1025280019f9070000007800100888004f047800a7
:102538000080fa00000006000400fa00008fbe00c8
:1025480005e1a9000421a9000068a9002068a800e5
:1025580005e1a8001e0078009e00900082ff070099
:102568000080fa00000006000400fa00881f7800c6
:10257800008fbe00f1088000f0fc2f000080600092
:10258800f00888001e0178009e019000006829006c
:1025980081c12400b6f8070018c0b30002f02f006c
:1025a800f3772400f6f807000000e00001003c0083
:1025b8000044eb000804e00054003200f1088000f9
:1025c800f0fc2f00008060000040a000f0088800a8
:1025d8001e0178009e0190000068290081c1240036
:1025e800a3f807000200200003102400a0f8070049
:1025f80018c0b30002f02f00f3772400e0f80700ba
:102608000000e00001003c000044eb000804e0008a
:1026180032003200f1088000f0fc2f0000806000da
:102628000050a000f00888001e0178009e0190006c
:102638000068290081c124008df8070002002000ed
:10264800032824008af8070018c0b30002f02f00fe
:10265800f3772400caf807000000e00001003c00fe
:102668000044eb000804e00010003200f10880008c
:102678000003200001007000f00888001e017800a7
:102688009e0190000068290081c1240078f80700a5
:10269800020020000338240075f80700baf8070084
:1026a8000000780010088800200037001e0178001c
:1026b8009e0190000068290081c124006cf8070081
:1026c800020020000328240069f80700aef807007c
:1026d8000000780010088800140037001e017800f8
:1026e8009e0190000068290081c1240060f807005d
:1026f80002002000031024005df80700a2f807007c
:102708000000780010088800080037001e017800d3
:102718009e0190000068290081c1240054f8070038
:1027280099f8070000007800100888004f04780026
:102738000080fa00000006000400fa00008fbe00c6
:102748001fe1a9001e21a9000368a9002368a800a9
:102758001fe1a8001e0078009e00900082ff07007d
:102768000080fa00000006000000fa0011608000f6
:1027780080ff2f00008060001060880000fa2000b1
:102788002060880023aca800238ca8001161800079
:10279800f03f2f000080600000a0a00010618800ba
:1027a8003000200020618800c3aca800c38ca800ba
:1027b80011668000f03f2f000080600000a0a0009c
:1027c80010668800300020002066880001eca80010
:1027d8000080fa00000006000000fa00889fbe0092
:1027e8008a9fbe004481800055818000208180003e
:1027f8003181800018c0b3000001be000400be0093
:102808005df807000000e000010035000044eb001f
:102818000804e0000f003200288180003981800020
:102828004a8180005b81800018d0bf000080fb00d7
:10283800cf80de0090f807000001be000a00be004d
:10284800aef707000801be00d000070040818800ed
:10285800518188004481800055818000208180005a
:102868003181800018c0b3000001be000400be0022
:1028780043f807000000e00001003c000044eb00c2
:102888000804e0000f0032002881800039818000b0
:102898004a8180005b81800018d0bf000080fb0067
:1028a800cf80de0074f807000001be000a00be00f9
:1028b80091f707000801be009c00070040818800ce
:1028c80051818800408180005181800018c0b30088
:1028d8006011b8002af807000000e00001003c0081
:1028e8000044eb000804e00004003200c3cca90057
:1028f80024eea800c3eca80003003700c3eca9002d
:1029080024cea800c3cca80040818000518180005b
:10291800700007000200200003222400aef8070020
:102928003af80700000078003066880004818000cb
:1029380015818000e0808000f180800018c0b3001d
:102948000001be000400be000bf807000000e00014
:10295800010035000044eb000804e0000f003200dd
:10296800e8808000f98080000a8180001b81800057
:1029780018d0bf000080fb00cf80de003ef80700c3
:102988000001be000a00be005cf707000801be0097
:102998007e00070000818800118188000481800082
:1029a80015818000e0808000f180800018c0b300ad
:1029b8000001be000400be00f1f707000000e000bf
:1029c80001003c000044eb000804e0000f00320066
:1029d800e8808000f98080000a8180001b818000e7
:1029e80018d0bf000080fb00cf80de0022f807006f
:1029f8000001be000a00be003ff707000801be0044
:102a08004a00070000818800118188000081800049
:102a18001181800018c0b3006011b800d8f7070012
:102a28000000e00001003c000044eb000804e00066
:102a38000400320023cca90015eea80023eca8005e
:102a48000300370023eca90015cea80023cca8006a
:102a580000818000118180001e0007000200200014
:102a6800032224005cf80700e8f70700000078005c
:102a7800306188004f05be004f04be000080fa0098
:102a8800000006000600fa00008fbe0042479800ca
:102a98004e409000e14f500004003a001e017800bb
:102aa8009e019000e2808800f38088004e409000ec
:102ab8000004e00005003a001e0078009e00900027
:102ac80001f0a20020818800318188000080fa008e
:102ad800000006000400fa00881f7800008fbe007e
:102ae80018c0b3006011b8001e0078009e00900066
:102af800a3f707000000e00001003d000044eb00e0
:102b08000804e000030032001e0078009e009000d8
:102b1800030037001e0078009e00900001f0a2001c
:102b28004f0478000080fa00000006000800fa0050
:102b3800881f7800008fbe0022079800330798008e
:102b480018c0b3002e019000be0190001e0078004e
:102b58009e0090008af707000000e00001003c009a
:102b68000044eb000804e000030032001e00780077
:102b78009e009000020037002e009000be009000da
:102b88004f0478000080fa00000006000800fa00f0
:102b9800881f7800008fbe0022079800330798002e
:102ba80018c0b3002e019000be0190001e007800ee
:102bb8009e00900070f707000000e000010035005b
:102bc8000044eb000804e000030032001e00780017
:102bd8009e009000020037002e009000be0090007a
:102be8004f0478000080fa00000006000c00fa008c
:102bf800881f7800008fbe002207980033079800ce
:102c0800440798005507980018c0b3004e0190007b
:102c1800de0190001e0078009e00900058f7070023
:102c28000000e00001003c000044eb000804e00064
:102c3800040032004e019000de019000028fbe00b9
:102c48000e00370018c0b3002e019000be0190009e
:102c58001e0078009e00900047f707000000e00083
:102c6800010035000044eb000804e00003003200d6
:102c78002e019000be019000028fbe001e00780059
:102c88009e0090004f0478000080fa0000000600c3
:102c98000400fa00008fbe00b2fd20009304240057
:102ca8001e0078009e009000f1f607000200200048
:102cb80043332400c8f707000080fa00000006002c
:102cc8000400fa00008fbe00b2fd20009304240027
:102cd8001e0078009e009000bff707000200200049
:102ce80043332400e2f607000080fa0000000600e3
:102cf8000000fa0021e3a8002143a8000119800080
:102d0800f0cf2f0000806000001988002043a90040
:102d180001198000000e20000100700000198800d1
:102d280011198000f0ff2100008060001019880050
:102d38002343a80011198000f0cf2f000080600005
:102d4800101988001119800030f82f0000806000e9
:102d58000040a000101988002203a9002223a9001e
:102d680025e3a900f0c0b30024e3b70021198000cf
:102d7800f00f2e008080600000f02000010070003d
:102d8800201988003303a9002e0ea8002f6ea80072
:102d98006f2ea8001e2ea8004feea8003063a800d2
:102da80030c3a8003163a80031e3a8002e03a800af
:102db8004119800000fc2f00008060004019880045
:102dc80028e3a90001a8a90021a8a80021e3a800d8
:102dd8000080fa00000006000000fa002023a80086
:102de8000080fa00000006000000fa002000210020
:102df8000080fa00000006000000fa000ad0bf00b8
:102e08000080fa00000006000000fa000a70ef00d7
:102e18000080fa00000006000000fa00f00320001d
:102e2800303a8800213a8000f0f32f0000806000db
:102e3800203a8800213a800000fe2f0000806000c0
:102e48000000a000203a880012002000800720001f
:102e5800a109200033742000804978008149780056
:102e680082497800103a8000000178000200a00032
:102e78006004200071052000237420008049780038
:102e8800814978008249780000000000113a8000ea
:102e9800000027008080600000002100808f500023
:102ea800faff3a0000000000113a800000022000fa
:102eb800008060000000e000fbff32000080fa00a4
:102ec800000006000000fa000e2eef001e2eef0094
:102ed8002e2eef003e2eef004e2eef005e2eef005e
:102ee8006e2eef00214ea90060cea90060eea90069
:102ef80011cea90011eea90020cea90020eea9004c
:082f08000080fa000000060041
:020000040000fa
:102f10000c100000080000008000000014100000e9
:102f200004000000800000001a10000026000000cd
:102f30008000000018100000020000008200000065
:102f400005000000001000000c00000080000000e0
:042f5000000000007d
:020000040000fa
:02000004000af0
:04afe000cfff00009f
:020000040000fa
:02000004000af0
:04afe400ffff00006b
:020000040000fa
:02000004000af0
:04afe8007fff0000e7
:020000040000fa
:02000004000af0
:04afec005fff000003
:020000040000fa
:02000004000af0
:04aff00038ff000026
:020000040000fa
:02000004000af0
:04aff400ffff00005b
:00000001FF
