:020000040000fa
:080000000002040000000000f2
:020000040000fa
:040008006e03000083
:020000040000fa
:04000c006e0300007f
:020000040000fa
:040010006e0300007b
:020000040000fa
:040014006e03000077
:020000040000fa
:040018006e03000073
:020000040000fa
:04001c006e0300006f
:020000040000fa
:040020006e0300006b
:020000040000fa
:040024006e03000067
:020000040000fa
:040028006e03000063
:020000040000fa
:04002c006e0300005f
:020000040000fa
:040030006e0300005b
:020000040000fa
:0400340002030000c3
:020000040000fa
:040038006e03000053
:020000040000fa
:04003c006e0300004f
:020000040000fa
:040040006e0300004b
:020000040000fa
:040044006e03000047
:020000040000fa
:04004800fa020000b8
:020000040000fa
:04004c006e0300003f
:020000040000fa
:040050006e0300003b
:020000040000fa
:040054006e03000037
:020000040000fa
:040058006e03000033
:020000040000fa
:04005c004c03000051
:020000040000fa
:040060006e0300002b
:020000040000fa
:040064006e03000027
:020000040000fa
:040068006e03000023
:020000040000fa
:04006c006e0300001f
:020000040000fa
:040070006e0300001b
:020000040000fa
:040074006e03000017
:020000040000fa
:040078006e03000013
:020000040000fa
:04007c006e0300000f
:020000040000fa
:040080006e0300000b
:020000040000fa
:040084006e03000007
:020000040000fa
:040088006e03000003
:020000040000fa
:04008c006e030000ff
:020000040000fa
:040090006e030000fb
:020000040000fa
:040094002203000043
:020000040000fa
:040098006e030000f3
:020000040000fa
:04009c006e030000ef
:020000040000fa
:0400a0006e030000eb
:020000040000fa
:0400a4006e030000e7
:020000040000fa
:0400a8006e030000e3
:020000040000fa
:0400ac006e030000df
:020000040000fa
:0400b0006e030000db
:020000040000fa
:0400b4006e030000d7
:020000040000fa
:0400b8006e030000d3
:020000040000fa
:0400bc006e030000cf
:020000040000fa
:0400c0006e030000cb
:020000040000fa
:0400c4006e030000c7
:020000040000fa
:0400c8006e030000c3
:020000040000fa
:0400cc006e030000bf
:020000040000fa
:0400d0006e030000bb
:020000040000fa
:0400d4006e030000b7
:020000040000fa
:0400d8006e030000b3
:020000040000fa
:0400dc006e030000af
:020000040000fa
:0400e0006e030000ab
:020000040000fa
:0400e4006e030000a7
:020000040000fa
:0400e8006e030000a3
:020000040000fa
:0400ec006e0300009f
:020000040000fa
:0400f0006e0300009b
:020000040000fa
:0400f4006e03000097
:020000040000fa
:0400f8006e03000093
:020000040000fa
:0400fc006e0300008f
:020000040000fa
:040100006e0300008a
:020000040000fa
:040104006e03000086
:020000040000fa
:040108006e03000082
:020000040000fa
:04010c006e0300007e
:020000040000fa
:040110006e0300007a
:020000040000fa
:040114006e03000076
:020000040000fa
:040118006e03000072
:020000040000fa
:04011c006e0300006e
:020000040000fa
:040120006e0300006a
:020000040000fa
:040124006e03000066
:020000040000fa
:040128006e03000062
:020000040000fa
:04012c006e0300005e
:020000040000fa
:040130006e0300005a
:020000040000fa
:040134006e03000056
:020000040000fa
:040138006e03000052
:020000040000fa
:04013c006e0300004e
:020000040000fa
:040140006e0300004a
:020000040000fa
:040144006e03000046
:020000040000fa
:040148006e03000042
:020000040000fa
:04014c006e0300003e
:020000040000fa
:040150006e0300003a
:020000040000fa
:040154006e03000036
:020000040000fa
:040158006e03000032
:020000040000fa
:04015c006e0300002e
:020000040000fa
:040160006e0300002a
:020000040000fa
:040164006e03000026
:020000040000fa
:040168006e03000022
:020000040000fa
:04016c006e0300001e
:020000040000fa
:040170006e0300001a
:020000040000fa
:040174006e03000016
:020000040000fa
:040178006e03000012
:020000040000fa
:04017c006e0300000e
:020000040000fa
:040180006e0300000a
:020000040000fa
:040184006e03000006
:020000040000fa
:040188006e03000002
:020000040000fa
:04018c006e030000fe
:020000040000fa
:040190006e030000fa
:020000040000fa
:040194006e030000f6
:020000040000fa
:040198006e030000f2
:020000040000fa
:04019c006e030000ee
:020000040000fa
:0401a0006e030000ea
:020000040000fa
:0401a4006e030000e6
:020000040000fa
:0401a8006e030000e2
:020000040000fa
:0401ac006e030000de
:020000040000fa
:0401b0006e030000da
:020000040000fa
:0401b4006e030000d6
:020000040000fa
:0401b8006e030000d2
:020000040000fa
:0401bc006e030000ce
:020000040000fa
:0401c0006e030000ca
:020000040000fa
:0401c4006e030000c6
:020000040000fa
:0401c8006e030000c2
:020000040000fa
:0401cc006e030000be
:020000040000fa
:0401d0006e030000ba
:020000040000fa
:0401d4006e030000b6
:020000040000fa
:0401d8006e030000b2
:020000040000fa
:0401dc006e030000ae
:020000040000fa
:0401e0006e030000aa
:020000040000fa
:0401e4006e030000a6
:020000040000fa
:0401e8006e030000a2
:020000040000fa
:0401ec006e0300009e
:020000040000fa
:0401f0006e0300009a
:020000040000fa
:0401f4006e03000096
:020000040000fa
:0401f8006e03000092
:020000040000fa
:0401fc006e0300008e
:020000040000fa
:040200006e03000089
:020000040000fa
:040204006e03000085
:020000040000fa
:040208006e03000081
:020000040000fa
:04020c006e0300007d
:020000040000fa
:040210006e03000079
:020000040000fa
:040214006e03000075
:020000040000fa
:040218006e03000071
:020000040000fa
:04021c006e0300006d
:020000040000fa
:040220006e03000069
:020000040000fa
:040224006e03000065
:020000040000fa
:040228006e03000061
:020000040000fa
:04022c006e0300005d
:020000040000fa
:040230006e03000059
:020000040000fa
:040234006e03000055
:020000040000fa
:040238006e03000051
:020000040000fa
:04023c006e0300004d
:020000040000fa
:040240006e03000049
:020000040000fa
:040244006e03000045
:020000040000fa
:040248006e03000041
:020000040000fa
:04024c006e0300003d
:020000040000fa
:040250006e03000039
:020000040000fa
:040254006e03000035
:020000040000fa
:040258006e03000031
:020000040000fa
:04025c006e0300002d
:020000040000fa
:040260006e03000029
:020000040000fa
:040264006e03000025
:020000040000fa
:040268006e03000021
:020000040000fa
:04026c006e0300001d
:020000040000fa
:040270006e03000019
:020000040000fa
:040274006e03000015
:020000040000fa
:040278006e03000011
:020000040000fa
:04027c006e0300000d
:020000040000fa
:040280006e03000009
:020000040000fa
:10040000af0321000eff2c000e0188000000000049
:10041000000020000000e000020032000001200087
:100420002002880014000700ae0007000000e00072
:1004300003003a000075210001002000020037008f
:100440000000200001002000810f70000100320038
:100450000f000700000020000000e0000200320052
:100460000000020000000000000702000000000081
:100470000040da000000fe00200020000000e00044
:1004800002003200100020009001880000000600e9
:10049000a1028800800478000000eb001f003700f4
:1004a000e284440054a0b4009905ba00e2844400f8
:1004b00054a0b4009906ba00e284440054a0b400e9
:1004c0000006eb00476fde00fd07b200ae018800ba
:1004d000636ce10003003a000ad801000000eb0061
:1004e0000e003700606ce10008003a00004deb00a0
:1004f0000a05e800020039003420ec000af0a000f0
:100500008b05e900f9ff3e00040037006168e10057
:10051000010032000086eb000b00070019c7ba008b
:100520000e04e0001905ba0003003a000a00e000da
:10053000dbff3a0000000600fe07b200ae028800b2
:100540008a047800f5ff37000cd0a300e20f4d00bd
:100550001c00390089027800354dba000a05e80010
:10056000020039003420ec000af0a0008b05e900fd
:100570000f003200254dba000a05e80002003900dc
:100580003420ec000af0a0008b05e90008003200de
:100590000c00e0000600320015cdba000a05e800a4
:1005a000020039003420ec000af0a0008b05e900bd
:1005b0008984e80054a0b4000b00e000e2ff3a0098
:1005c000000006009902ba00055d78008b05e9007d
:1005d000f7ff3200c82ade00055d78008b05e900d0
:1005e000f3ff32000c00e000f1ff320019ddba0029
:1005f000eeff37000000fa000108a9000080fa00b1
:10060000004006003600f800809fbe00829fbe00ba
:10061000849fbe00869fbe000000fa000068a9000b
:1006200055080700d20907000080fa004f03be00fa
:100630004f02be004f01be004f00be003600f90061
:10064000004006003600f800809fbe00829fbe007a
:10065000849fbe00869fbe000000fa000368a900c8
:10066000608080007180800061004000e080480070
:100670006080880071808800790207000080fa009d
:100680004f03be004f02be004f01be004f00be0030
:100690003600f90000400600809fbe000000fa000e
:1006a00001a8a9000118800020002100010878009d
:1006b00011188000200021001100980021188000ee
:1006c000200021002100980010c0b3000af0b700fc
:1006d0000080fa004f00be00004006000040da0033
:1006e0000000fe000000050003f0a200889fbe008d
:1006f0008a9fbe008c1f78001b0107002201330077
:100700006450e1004f0032006420e10052003200ea
:1007100003826c0007003b000905d0000306d000ef
:10072000820f54000c065d00020039000200320006
:1007300089017800030678008582550004003d0099
:100740000003fd008103fd008502ea008b85420065
:10075000840f720002003b0060001000e08018006f
:100760006011b8000005eb007a28e1000a003900aa
:1007700006007800c75ddd00f707b20087807500ce
:100780002d003700828171000a0178006105600048
:100790008180d1000080d3008502e900f9ff3b0091
:1007a000060440008784480002003b0060041400f7
:1007b000e0841c000988a300070032008a817100d0
:1007c00082817100610164008904d1000884d30032
:1007d0008b05e800170037000978a30013003a00e2
:1007e0000b00e000130034008b05e900080444000e
:1007f00089844c000a4474000978a3000d003a0073
:100800000b00e000070034008b05e90008044400f9
:1008100089844c0001003a000b0020000978a300f5
:10082000f7ff32000001eb00020037008281710007
:100830000a017800910007000cf0a70001f0a00069
:10084000da0037006420e10002003a00838f6c0078
:10085000da0033000801be000200be00d3003700fa
:10086000889fbe008a9fbe008c1f7800be000700d4
:10087000c500330003866c006450e1002e00320096
:100880006420e100330032006150e1002f003200ab
:100890006120e1003100320085855500eb07b00092
:1008a0000900200008042000050037000804440067
:1008b00089844c000a0031000603430087834b0003
:1008c0000001530081815b00f8ff33000203be008a
:1008d0000800a0000804440089844c00f6ff390099
:1008e000c639dd00830173000100320013002000cf
:1008f0008904d1000884d3000998a30005003200c0
:100900000800a7000300a0008904d1000884d300d8
:100910008b05e8008904d1000884d3000001eb00b6
:100920000281d2005500070001f0a1000cf0a700e1
:1009300001f0a0009d0037006420e1009f0032001c
:100940000801be000200be00f7ff37006120e10091
:100950009a0032006000b800f3ff3700000020006a
:1009600001f82700f0ff370014002000ca0037000c
:10097000f4ff2f00c80037000001be00650007002b
:100980000470a70003f0a1006509b1001600320051
:100990000d0035006828e10006003500f0ff2f004b
:1009a000f1ff27000300e00013003b0001002800d6
:1009b0000000050000004000818048008502e90039
:1009c000fcff3a0008003700f88f420002003c00ac
:1009d0008000eb00000005008100d1000080d30002
:1009e0008502e800fcff3a000300e00002003b0043
:1009f00060001000e0801800000006000001be004a
:100a0000440007000470a70003f0a10003f8a3004e
:100a100013003a006509b1001000320009003500ea
:100a20006928e100020035000100280000000500ef
:100a300000004000818048008502e900fcff3a0088
:100a400000000600f88f4200050035008100d1004b
:100a50000080d3008502e800fcff3a000000060099
:100a60008000eb00000005004f89de008201780065
:100a7000a40037006011b800b200370081002000e8
:100a8000618055000b003d000b00200061fe2f002f
:100a90000100e1001d0034008281710061016400e9
:100aa0008904d1000884d3000000e800faff3a006e
:100ab000710020006100640003007000020060000b
:100ac0000900320061044400e0844c000988a5005c
:100ad000050032008b05e8006808e10002003a00da
:100ae0008904d1000884d300f20f20000258e100ed
:100af00005003d00c75ddd00f907b2008980750083
:100b000008007800000006000bf827008b00780032
:100b100000000500c70ade00f107b200f50fb200c1
:100b200008003200e1cf4200020032000170a00054
:100b300024000500810f7000010032000408050048
:100b400044000500810f700002003a001400050007
:100b50008502e9000000400081c04800fcff3b0026
:100b60000170a000240005000004be00e9ff07009a
:100b70000003be000405be000200be00e5ff070042
:100b8000844f7500000006000200be006450e100c2
:100b9000050036006420e100020036000968a30069
:100ba00001003a000800be000160a0004f06780076
:100bb0004f05be004f04be0000000600f0ff2f00ee
:100bc000f1ff2700f9ff3700889fbe008a9fbe0013
:100bd0008c1f7800e4ff0700ebff330003866c00f6
:100be0006450e100240032006420e100270032005c
:100bf0006150e100220032006120e100210032005a
:100c00008b854200eb07b1000134b800003ab80010
:100c10000804420089844a00013ab8000030b80054
:100c20008880400009014a000400330000004000b1
:100c300081804800020149008b05e900c909dd00f7
:100c4000830170000100320013002000c814de0090
:100c50004814dd004709de001200b200c808de00bb
:100c60000884700085ff070001f0a1000cf0a700c8
:100c700001f0a000cdff37006120e100cfff32007e
:100c80000801be000200be00f7ff37006150e1001e
:100c9000fcff3a00c9ff3700889fbe008a9fbe0054
:100ca000841f7800b0ff07004f0078001100330068
:100cb000f0ff2f00838f6c0006003b0004056500e9
:100cc0000a00a7000800370009f0a6001000200065
:100cd00008003700820f5400838f5c000300390046
:100ce0001000200001003e000000200009f0a700d5
:100cf0000000ea004f05be004f04be000000e00007
:100d000000000600881f7800030478000300e0005c
:100d100007003d0060001000e0801800600119002d
:100d2000e081190002003b0001f02d0003003700b4
:100d30000400070008f0a70001f0a0004f047800ad
:100d400000000600889fbe008a9fbe0000827000df
:100d50000402710004827100260032000004be000b
:100d60000200be006011b8006b092000950220004f
:100d70000182cf000a0039000541b1000082cf0096
:100d8000070039000541b1000982cf000400390095
:100d90000541b1000882cf00010039000541b100d2
:100da00005425200120032000a003b0082817100ad
:100db000610164008100d1000080d3008984d300e8
:100dc0000884d3008b05e8000442e800f7ff3a00ee
:100dd000070037000804440089844c0000004800e4
:100de000818048008b05e9000442e900f9ff3a00e0
:100df00022ff07004f05be004f04be0000000600a2
:020000040000fa
:100e00000800fa00881f7800e907070013080700a8
:100e100064cea80064eea800254ea80000002000c3
:100e200061312400ac0507001e050700000020000a
:100e3000a14724002806070033060700940707008f
:100e40006000b800d0808800e18088006000b800b1
:100e50001081880021818800c9070700000f7800f1
:100e6000cb070700e14f500052003a00cc070700c3
:100e7000c3070700000f7800c1070700100798009c
:100e80001e00900064004000100078008000eb001d
:100e9000f8fe070032332300330524004aff070021
:100ea00002002000035824006dfe0700d2cc2c0065
:100eb000c304240044ff070020079800310798006e
:100ec0002e019000be01900000002000812024002f
:100ed00063fe070002002000030a240002fe070050
:100ee00030818800418188001e0090000080e80069
:100ef000100078008000eb00defe07003233230094
:100f00003305240030ff07000200200003582400ae
:100f100053fe0700d2cc2c00c30424002aff070094
:100f200020079800310798002e019000be01900024
:100f3000000020008120240049fe0700020020005c
:100f4000030a2400e8fd0700708188008181880081
:100f50001e009000100078008000eb00c5fe070026
:100f6000323323003305240017ff0700020020005e
:100f7000035824003afe0700d2cc2c00c3042400fe
:100f800011ff070020079800310798002e019000fc
:100f9000be019000000020008120240030fe0700e8
:100fa00002002000030a2400cffd070050818800c2
:100fb00061818800508180006181800018c0b30089
:100fc00002002000031f240067fe07000000e0006d
:100fd000010035000044eb000804e000020032008c
:100fe000254ea80001003700254ea9003081800061
:100ff0004181800018c0b30002002000031f2400bc
:1010000059fe07000000e000010035000044eb003d
:101010000804e0000200320064cea800010037009e
:1010200064cea900708180008181800018c0b30067
:1010300002002000031f24004bfe07000000e00018
:10104000010035000044eb000804e000020032001b
:1010500064eea80082ff370064eea90080ff37002d
:101060000000fa0010d0bf000080fb00cf80de003f
:101070005201200003002000820f5000838f58008f
:101080008f003e0000060100150037001e003700eb
:101090002700370031003700320037003b003700af
:1010a000540037005d0037005e00370068003700ed
:1010b0006900370073003700810037008000370077
:1010c0007f0037007e003700320037003b003700da
:1010d0003c003700450037006c00370076003700d1
:1010e0000c30ef000e30ef000041eb006000b80064
:1010f0004c06070012c0b3006000b80049060700a4
:1011000010c0b30010f0b7006280800073808000d0
:10111000803e200001002000800f5100818f590087
:101120006a00360020c0b30010f0b7006800370036
:101130000041eb0000002000011a240039060700de
:1011400012c0b30000002000011a24003506070079
:1011500030c0b30010f0b7005d0037005e0007003c
:101160005b0037000041eb00000020000117240065
:101170002c06070012c0b3006000b8002906070063
:1011800050c0b30010f0b700510037005200070004
:101190004f0037000041eb00000020000112240046
:1011a0002006070012c0b3006000b8001d0607004b
:1011b00010c1b30010f0b70045003700460007002b
:1011c000430037000041eb006000b800150607003f
:1011d00012c0b30000002000011224001106070015
:1011e00030c1b30010f0b700390037003a000700f3
:1011f000370037000041eb006000b8000906070027
:1012000012c0b300000020000117240005060700eb
:1012100070c0b30010f0b7002d0037002e0007009b
:101220002b0037000041eb000000200001172400d4
:10123000fc05070012c0b3000000200001172c00bd
:10124000f805070090c0b30010f0b7002000370089
:10125000210007001e0037000041eb0000002000c5
:1012600001172c00ef05070012c0b300000020009a
:1012700001172400eb050700b0c0b30010f0b70061
:101280001300370014000700110037000041eb0085
:101290000000200001142400e205070012c0b30082
:1012a0000000200001182400de05070050c1b30033
:1012b00010f0b700060037000700070004003700f1
:1012c0001070ef0000000000010037000000000077
:1012d0000080fa00000006000200fa00881f780073
:1012e0000040eb00004f7800308180004181800099
:1012f00018c0b30002002000831c24009afd0700e0
:101300000000e000010035000044eb000804e000ac
:101310002f003200708180008181800018c0b300ee
:1013200002002000031a240091fd07000000e000e5
:1013300001003c000044eb000804e00024003200ff
:10134000508180006181800018c0b300020020003d
:10135000831c240086fd07000000e00001003c0023
:101360000044eb000804e00019003200b081800066
:10137000c181800018c0b3000200200003172400c0
:101380007bfd07000000e00001003c000044eb0092
:101390000804e0000e00320090818000a1818000ee
:1013a00018c0b300020020000317240070fd0700de
:1013b0000000e00001003c000044eb000804e000f5
:1013c0000300320020c0b300004f780068033700ec
:1013d000308180004181800018c0b30002002000ed
:1013e000831c240062fd07000000e00001003c00b7
:1013f0000044eb000804e0002f0032007081800000
:101400008181800018c0b30002002000031a24006c
:1014100057fd07000000e00001003c000044eb0025
:101420000804e000240032005081800061818000c7
:1014300018c0b30002002000831c24004afd0700ee
:101440000000e000010035000044eb000804e0006b
:1014500019003200b0818000c181800018c0b30043
:10146000020020000317240041fd07000000e000f7
:1014700001003c000044eb000804e0000e003200d4
:1014800090818000a181800018c0b300020020007c
:101490000317240036fd07000000e00001003c00b7
:1014a0000044eb000804e0000300320010c0b30069
:1014b000004f78002e03370030818000418180008a
:1014c00018c0b30002002000831c240028fd070080
:1014d0000000e00001003c000044eb000804e000d4
:1014e0002f003200708180008181800018c0b3001d
:1014f00002002000031a24001bfd07000000e0008a
:10150000010035000044eb000804e0002400320034
:10151000508180006181800018c0b300020020006b
:10152000831c240012fd07000000e00001003c00c5
:101530000044eb000804e00019003200b081800094
:10154000c181800018c0b3000200200003172400ee
:1015500007fd07000000e00001003c000044eb0034
:101560000804e0000e00320090818000a18180001c
:1015700018c0b3000200200003172400fcfc070081
:101580000000e00001003c000044eb000804e00023
:101590000300320030c0b300004f7800f40237007f
:1015a000308180004181800018c0b300020020001b
:1015b000831c2400eefc07000000e00001003c005a
:1015c0000044eb000804e0002f003200708180002e
:1015d0008181800018c0b30002002000031a24009b
:1015e000e1fc07000000e000010035000044eb00d2
:1015f0000804e000240032005081800061818000f6
:1016000018c0b30002002000831c2400d6fc070091
:101610000000e000010035000044eb000804e00099
:1016200019003200b0818000c181800018c0b30071
:101630000200200003172400cdfc07000000e0009a
:1016400001003c000044eb000804e0000e00320002
:1016500090818000a181800018c0b30002002000aa
:1016600003172400c2fc07000000e00001003c005a
:101670000044eb000804e0000300320050c0b30057
:10168000004f7800ba02370030818000418180002d
:1016900018c0b30002002000831c2400b2fc070025
:1016a0000000e000010035000044eb000804e00009
:1016b0002f003200708180008181800018c0b3004b
:1016c00002002000031a2400a7fc07000000e0002d
:1016d000010035000044eb000804e0002400320063
:1016e000508180006181800018c0b300020020009a
:1016f000831c24009efc07000000e00001003c0069
:101700000044eb000804e00019003200b0818000c2
:10171000c181800018c0b30002002000031724001c
:1017200093fc07000000e00001003c000044eb00d7
:101730000804e0000e00320090818000a18180004a
:1017400018c0b300020020000317240088fc070023
:101750000000e00001003c000044eb000804e00051
:101760000300320040c0b300004f78008002370011
:10177000308180004181800018c0b3000200200049
:10178000831c24007afc07000000e00001003c00fc
:101790000044eb000804e0002f003200708180005c
:1017a0008181800018c0b30002002000031a2400c9
:1017b0006ffc07000000e00001003c000044eb006b
:1017c0000804e00024003200508180006181800024
:1017d00018c0b30002002000831c240062fc070034
:1017e0000000e000010035000044eb000804e000c8
:1017f00019003200b0818000c181800018c0b300a0
:10180000020020000317240057fc07000000e0003e
:10181000010035000044eb000804e0000e00320037
:1018200090818000a181800018c0b30002002000d8
:10183000031724004efc07000000e00001003c00fc
:101840000044eb000804e0000300320060c0b30075
:10185000004f7800460237003081800041818000cf
:1018600018c0b30002002000831c24003efc0700c7
:101870000000e000010035000044eb000804e00037
:101880002f003200708180008181800018c0b30079
:1018900002002000031a240035fc07000000e000cd
:1018a00001003c000044eb000804e000240032008a
:1018b000508180006181800018c0b30002002000c8
:1018c000831c24002afc07000000e00001003c000b
:1018d0000044eb000804e00019003200b0818000f1
:1018e000c181800018c0b30002002000031724004b
:1018f0001ffc07000000e00001003c000044eb007a
:101900000804e0000e00320090818000a181800078
:1019100018c0b300020020000317240012fc0700c7
:101920000000e000010035000044eb000804e00086
:101930000300320070c0b300004f78000c02370083
:10194000308180004181800018c0b3000200200077
:10195000831c240006fc07000000e00001003c009e
:101960000044eb000804e0002f003200708180008a
:101970008181800018c0b30002002000031a2400f7
:10198000fbfb07000000e00001003c000044eb000e
:101990000804e00024003200508180006181800052
:1019a00018c0b30002002000831c2400f0fb0700d5
:1019b0000000e00001003c000044eb000804e000ef
:1019c00019003200b0818000c181800018c0b300ce
:1019d0000200200003172400e5fb07000000e000e0
:1019e00001003c000044eb000804e0000e0032005f
:1019f00090818000a181800018c0b3000200200007
:101a000003172400d8fb07000000e00001003500a8
:101a10000044eb000804e0000300320080c0b30083
:101a2000004f7800d2013700308180004181800072
:101a300018c0b30002002000831c2400ccfb070068
:101a40000000e00001003c000044eb000804e0005e
:101a50002f003200708180008181800018c0b300a7
:101a600002002000031a2400c1fb07000000e00070
:101a700001003c000044eb000804e00024003200b8
:101a8000508180006181800018c0b30002002000f6
:101a9000831c2400b6fb07000000e00001003c00ae
:101aa0000044eb000804e00019003200b08180001f
:101ab000c181800018c0b300020020000317240079
:101ac000a9fb07000000e000010035000044eb0026
:101ad0000804e0000e00320090818000a1818000a7
:101ae00018c0b3000200200003172400a0fb070069
:101af0000000e00001003c000044eb000804e000ae
:101b00000300320090c0b300004f78009801370006
:101b1000308180004181800018c0b30002002000a5
:101b2000831c240092fb07000000e00001003c0041
:101b30000044eb000804e0002f00320070818000b8
:101b40008181800018c0b30002002000031a240025
:101b500087fb07000000e00001003c000044eb00b0
:101b60000804e00024003200508180006181800080
:101b700018c0b30002002000831c24007cfb070077
:101b80000000e00001003c000044eb000804e0001d
:101b900019003200b0818000c181800018c0b300fc
:101ba00002002000031724006ffb07000000e00084
:101bb000010035000044eb000804e0000e00320094
:101bc00090818000a181800018c0b3000200200035
:101bd0000317240064fb07000000e000010035004b
:101be0000044eb000804e00003003200a0c0b30092
:101bf000004f78005e013700308180004181800015
:101c000018c0b30002002000831c240056fb07000c
:101c10000000e000010035000044eb000804e00093
:101c20002f003200708180008181800018c0b300d5
:101c300002002000031a24004dfb07000000e00012
:101c400001003c000044eb000804e00024003200e6
:101c5000508180006181800018c0b3000200200024
:101c6000831c240042fb07000000e00001003c0050
:101c70000044eb000804e00019003200b08180004d
:101c8000c181800018c0b3000200200003172400a7
:101c900035fb07000000e000010035000044eb00c8
:101ca0000804e0000e00320090818000a1818000d5
:101cb00018c0b30002002000031724002cfb07000b
:101cc0000000e00001003c000044eb000804e000dc
:101cd00003003200a0c0b300004f78002401370099
:101ce000308180004181800018c0b30002002000d4
:101cf000831c24001efb07000000e00001003c00e4
:101d00000044eb000804e0002f00320070818000e6
:101d10008181800018c0b30002002000031a240053
:101d200011fb07000000e000010035000044eb005b
:101d30000804e000240032005081800061818000ae
:101d400018c0b30002002000831c240008fb070019
:101d50000000e00001003c000044eb000804e0004b
:101d600019003200b0818000c181800018c0b3002a
:101d70000200200003172400fbfa07000000e00027
:101d8000010035000044eb000804e0000e003200c2
:101d900090818000a181800018c0b3000200200063
:101da00003172400f2fa07000000e00001003c00e5
:101db0000044eb000804e0000300320040c0b30020
:101dc000004f7800ea0037003081800041818000b8
:101dd00018c0b30002002000831c2400e4fa0700ae
:101de0000000e00001003c000044eb000804e000bb
:101df0002f003200708180008181800018c0b30004
:101e000002002000031a2400d9fa07000000e000b5
:101e100001003c000044eb000804e0002400320014
:101e2000508180006181800018c0b3000200200052
:101e3000831c2400ccfa07000000e00001003500fc
:101e40000044eb000804e00019003200b08180007b
:101e5000c181800018c0b3000200200003172400d5
:101e6000c3fa07000000e00001003c000044eb0062
:101e70000804e0000e00320090818000a181800003
:101e800018c0b3000200200003172400b6fa0700b0
:101e90000000e000010035000044eb000804e00011
:101ea00003003200a0c0b300004f7800b00037003c
:101eb000308180004181800018c0b3000200200002
:101ec000831c2400a8fa07000000e0000100350090
:101ed0000044eb000804e0002f0032007081800015
:101ee0008181800018c0b30002002000031a240082
:101ef0009ffa07000000e00001003c000044eb00f6
:101f00000804e000240032005081800061818000dc
:101f100018c0b30002002000831c240092fa0700be
:101f20000000e000010035000044eb000804e00080
:101f300019003200b0818000c181800018c0b30058
:101f4000020020000317240089fa07000000e000c7
:101f500001003c000044eb000804e0000e003200e9
:101f600090818000a181800018c0b3000200200091
:101f7000031724007efa07000000e00001003c0087
:101f80000044eb000804e00003003200a0c0b300ee
:101f9000004f78007600370030818000418180005a
:101fa00018c0b30002002000831c240070fa070050
:101fb0000000e00001003c000044eb000804e000e9
:101fc0002f003200708180008181800018c0b30032
:101fd00002002000031a240063fa07000000e0005a
:101fe000010035000044eb000804e000240032004a
:101ff000508180006181800018c0b3000200200081
:10200000831c24005afa07000000e00001003c0095
:102010000044eb000804e00019003200b0818000a9
:10202000c181800018c0b300020020000317240003
:102030004ffa07000000e00001003c000044eb0004
:102040000804e0000e00320090818000a181800031
:1020500018c0b300020020000317240042fa070052
:102060000000e000010035000044eb000804e0003f
:102070000300320050c0b300004f78003c0037002e
:10208000308180004181800018c0b3000200200030
:10209000831c240036fa07000000e00001003c0029
:1020a0000044eb000804e0002f0032007081800043
:1020b0008181800018c0b30002002000031a2400b0
:1020c0002bfa07000000e00001003c000044eb0098
:1020d0000804e0002400320050818000618180000b
:1020e00018c0b30002002000831c240020fa07005f
:1020f0000000e00001003c000044eb000804e000a8
:1021000019003200b0818000c181800018c0b30086
:10211000020020000317240015fa07000000e00069
:1021200001003c000044eb000804e0000e00320017
:1021300090818000a181800018c0b30002002000bf
:10214000031724000afa07000000e00001003c0029
:102150000044eb000804e000030032000040eb0004
:10216000004f7800020037000040eb00004f78007d
:102170001e407800e24f500003003a0040c0b30018
:1021800011f0b7003b0037001e407800e14f5000cf
:1021900003003a0060c0b30011f0b700350037000b
:1021a0001e407800e34f500003003a0080c0b300a7
:1021b00011f0b7002f0037001e407800e54f5000a7
:1021c00003003a00a0c0b30011f0b70029003700a7
:1021d0001e407800e44f500003003a0080c0b30076
:1021e00011f0b700230037001e407800e64f500082
:1021f00003003a0060c0b30011f0b7001d003700c3
:102200001e407800e74f500003003a0040c0b30082
:1022100011f0b700170037001e407800e84f50005b
:1022200003003a0000c1b30011f0b70011003700fd
:102230001e407800e94f500003003a0020c1b3006f
:1022400011f0b7000b0037001e407800ea4f500035
:1022500003003a0040c1b30011f0b7000500370099
:102260001e4078000004e00002003a0020c0b300e5
:1022700011f0b70011d0bf008080fb0010d0bf006c
:102280000080fb000000e900808f50000200320057
:1022900011d0bf0010f0b7004f0478000080fa00a2
:1022a000000006000000fa0013e1a90011e1a900f6
:1022b0001061a8001021a90081088000f0fc2f0007
:1022c00000806000800888000a21ef000621ef00ee
:1022d000202620007008880000a0250060088800e3
:1022e0002142800080ff2f00008060000000a000dd
:1022f000204288000108a9002108a80011e1a800d7
:102300000080fa00000006000400fa00881f780030
:10231000008fbe0021088000f0fc2f0000806000cc
:10232000200888001e0178009e01900000682900a6
:1023300081c124004af9070018c0b30002f02f0041
:10234000f37724008af907000000e00001003c0058
:102350000044eb000804e000540032002108800033
:10236000f0fc2f00008060000040a00020088800e2
:102370001e0178009e0190000068290081c12400a0
:1023800037f90700020020000310240034f9070089
:1023900018c0b30002f02f00f377240074f907008f
:1023a0000000e00001003c000044eb000804e000f5
:1023b0003200320021088000f0fc2f000080600015
:1023c0000050a000200888001e0178009e019000a7
:1023d0000068290081c1240021f9070002002000c3
:1023e000032824001ef9070018c0b30002f02f00d4
:1023f000f37724005ef907000000e00001003c00d4
:102400000044eb000804e0001000320021088000c6
:102410000003200001007000200888001e017800e1
:102420009e0190000068290081c124000cf907007a
:10243000020020000338240009f907004ef90700c4
:102440000000780010088800200037001e01780086
:102450009e0190000068290081c1240000f9070056
:102460000200200003282400fdf8070042f90700bd
:102470000000780010088800140037001e01780062
:102480009e0190000068290081c12400f4f8070033
:102490000200200003102400f1f8070036f90700bd
:1024a0000000780010088800080037001e0178003e
:1024b0009e0190000068290081c12400e8f807000f
:1024c0002df9070000007800100888004f047800fc
:1024d0000080fa00000006000400fa00008fbe0031
:1024e00005e1a9000421a9000068a9002068a8004e
:1024f00005e1a8001e0078009e00900082ff070002
:102500000080fa00000006000400fa00881f78002e
:10251000008fbe00f1088000f0fc2f0000806000fa
:10252000f00888001e0178009e01900000682900d4
:1025300081c12400caf8070018c0b30002f02f00c0
:10254000f37724000af907000000e00001003c00d6
:102550000044eb000804e00054003200f108800061
:10256000f0fc2f00008060000040a000f008880010
:102570001e0178009e0190000068290081c124009e
:10258000b7f807000200200003102400b4f8070089
:1025900018c0b30002f02f00f3772400f4f807000e
:1025a0000000e00001003c000044eb000804e000f3
:1025b00032003200f1088000f0fc2f000080600043
:1025c0000050a000f00888001e0178009e019000d5
:1025d0000068290081c12400a1f807000200200042
:1025e000032824009ef8070018c0b30002f02f0053
:1025f000f3772400def807000000e00001003c0053
:102600000044eb000804e00010003200f1088000f4
:102610000003200001007000f00888001e0178000f
:102620009e0190000068290081c124008cf80700f9
:10263000020020000338240089f80700cef80700c4
:102640000000780010088800200037001e01780084
:102650009e0190000068290081c1240080f80700d5
:1026600002002000032824007df80700c2f80700bc
:102670000000780010088800140037001e01780060
:102680009e0190000068290081c1240074f80700b1
:10269000020020000310240071f80700b6f80700bc
:1026a0000000780010088800080037001e0178003c
:1026b0009e0190000068290081c1240068f807008d
:1026c000adf8070000007800100888004f0478007b
:1026d0000080fa00000006000400fa00008fbe002f
:1026e0001fe1a9001e21a9000368a9002368a80012
:1026f0001fe1a8001e0078009e00900082ff0700e6
:102700000080fa00000006000000fa00116080005e
:1027100080ff2f00008060001060880000fa200019
:102720002060880023aca800238ca80011618000e1
:10273000f03f2f000080600000a0a0001061880022
:102740003000200020618800c3aca800c38ca80022
:1027500011668000f03f2f000080600000a0a00004
:1027600010668800300020002066880001eca80078
:102770000080fa00000006000000fa00889fbe00fa
:102780008a9fbe001481800025818000f080800037
:102790000181800018c0b3000001be000400be002b
:1027a00071f807000000e000010035000044eb0074
:1027b0000804e0000f003200f880800009818000ea
:1027c0001a8180002b81800012d0bf000080fb00a6
:1027d000cf80de00a4f807000001be000a00be00a2
:1027e000c2f707000801be00d00007001081880072
:1027f000218188001481800025818000f080800084
:102800000181800018c0b3000001be000400be00ba
:1028100057f807000000e00001003c000044eb0016
:102820000804e0000f003200f88080000981800079
:102830001a8180002b81800012d0bf000080fb0035
:10284000cf80de0088f807000001be000a00be004d
:10285000a5f707000801be009c0007001081880052
:1028600021818800108180002181800018c0b30080
:102870006011b8003ef807000000e00001003c00d5
:102880000044eb000804e00004003200c3cca900bf
:1028900024eea800c3eca80003003700c3eca90095
:1028a00024cea800c3cca800108180002181800024
:1028b000700007000200200003222400c2f8070075
:1028c0004ef807000000780030668800d480800051
:1028d000e5808000b0808000c180800018c0b30017
:1028e0000001be000400be001ff807000000e00069
:1028f000010035000044eb000804e0000f00320046
:10290000b8808000c9808000da808000eb80800081
:1029100012d0bf000080fb00cf80de0052f807001d
:102920000001be000a00be0070f707000801be00eb
:102930007e000700d0808800e1808800d48080007d
:10294000e5808000b0808000c180800018c0b300a6
:102950000001be000400be0005f807000000e00012
:1029600001003c000044eb000804e0000f003200ce
:10297000b8808000c9808000da808000eb80800011
:1029800012d0bf000080fb00cf80de0036f80700c9
:102990000001be000a00be0053f707000801be0098
:1029a0004a000700d0808800e1808800d080800045
:1029b000e180800018c0b3006011b800ecf7070098
:1029c0000000e00001003c000044eb000804e000cf
:1029d0000400320023cca90015eea80023eca800c7
:1029e0000300370023eca90015cea80023cca800d3
:1029f000d0808000e18080001e00070002002000df
:102a00000322240070f80700fcf70700000078009c
:102a1000306188004f05be004f04be000080fa0000
:102a2000000006000600fa00008fbe004247980032
:102a30004e409000e14f500004003a001e01780023
:102a40009e019000b2808800c38088004e409000b4
:102a50000004e00005003a001e0078009e0090008f
:102a600001f0a200f0808800018188000080fa0057
:102a7000000006000400fa00881f7800008fbe00e6
:102a800018c0b3006011b8001e0078009e009000ce
:102a9000b7f707000000e00001003d000044eb0034
:102aa0000804e000030032001e0078009e00900041
:102ab000030037001e0078009e00900001f0a20085
:102ac0004f0478000080fa00000006000800fa00b9
:102ad000881f7800008fbe002207980033079800f7
:102ae00018c0b3002e019000be0190001e007800b7
:102af0009e0090009ef707000000e00001003c00ef
:102b00000044eb000804e000030032001e007800df
:102b10009e009000020037002e009000be00900042
:102b20004f0478000080fa00000006000800fa0058
:102b3000881f7800008fbe00220798003307980096
:102b400018c0b3002e019000be0190001e00780056
:102b50009e00900084f707000000e00001003500af
:102b60000044eb000804e000030032001e0078007f
:102b70009e009000020037002e009000be009000e2
:102b80004f0478000080fa00000006000c00fa00f4
:102b9000881f7800008fbe00220798003307980036
:102ba000440798005507980018c0b3004e019000e4
:102bb000de0190001e0078009e0090006cf7070078
:102bc0000000e00001003c000044eb000804e000cd
:102bd000040032004e019000de019000028fbe0022
:102be0000e00370018c0b3002e019000be01900007
:102bf0001e0078009e0090005bf707000000e000d8
:102c0000010035000044eb000804e000030032003e
:102c10002e019000be019000028fbe001e007800c1
:102c20009e0090004f0478000080fa00000006002b
:102c30000400fa00008fbe00b2fd200093042400bf
:102c40001e0078009e00900005f70700020020009b
:102c500043332400dcf707000080fa000000060080
:102c60000400fa00008fbe00b2fd2000930424008f
:102c70001e0078009e009000d3f70700020020009d
:102c800043332400f6f607000080fa000000060037
:102c90000000fa0021e3a8002143a80001198000e8
:102ca000f0cf2f0000806000001988002043a900a9
:102cb00001198000000e200001007000001988003a
:102cc00011198000f0ff21000080600010198800b9
:102cd0002343a80011198000f0cf2f00008060006e
:102ce000101988001119800030f82f000080600052
:102cf0000030a000101988002203a9002223a90097
:102d000025e3a900f0c0b30024e3b7002119800037
:102d1000f00f2e008080600000f0200001007000a5
:102d2000201988003303a9002e0ea8002f6ea800da
:102d30006f2ea8001e2ea8004feea80030c3a800da
:102d40003163a8002e03a8004119800000fc2f0069
:102d5000008060004019880028e3a90001a8a900ac
:102d600021a8a80021e3a8000080fa0000000600c6
:102d70000000fa002023a8000080fa0000000600ee
:102d80000000fa00200021000080fa000000060088
:102d90000000fa000ad0bf000080fa000000060020
:102da0000000fa000a70ef000080fa000000060040
:102db0000000fa00f0032000303a8800213a800039
:102dc000f0f32f0000806000203a8800213a800054
:102dd00000fe2f00008060000000a000203a880064
:102de0001200200080072000a10920003374200079
:102df000804978008149780082497800103a800043
:102e0000000178000200a00060042000710520008d
:102e10002374200080497800814978008249780035
:102e200000000000113a8000000027008080600050
:102e300000002100808f5000faff3a0000000000df
:102e4000113a800000022000008060000000e000d5
:102e5000fbff32000080fa00000006000000fa00cc
:102e60000e2eef001e2eef002e2eef003e2eef0056
:102e70004e2eef005e2eef006e2eef00214ea900c9
:102e800060cea90060eea90011cea90011eea90044
:102e900020cea90020eea9000080fa000000060064
:020000040000fa
:102ea0001010000002000000800000000c10000064
:102eb0000400000080000000141000002600000044
:102ec00080000000121000000200000082000000dc
:102ed00005000000001000000c0000008000000051
:042ee00000000000ee
:020000040000fa
:02000004000af0
:04afe000cfff00009f
:020000040000fa
:02000004000af0
:04afe400ffff00006b
:020000040000fa
:02000004000af0
:04afe8007fff0000e7
:020000040000fa
:02000004000af0
:04afec005fff000003
:020000040000fa
:02000004000af0
:04aff00038ff000026
:020000040000fa
:02000004000af0
:04aff400ffff00005b
:00000001FF
